{
  "_format": "hh-sol-artifact-1",
  "contractName": "RealEstate",
  "sourceName": "contracts/realEstate/RealEstate.sol",
  "abi": [
    {
      "inputs": [],
      "stateMutability": "nonpayable",
      "type": "constructor"
    },
    {
      "anonymous": false,
      "inputs": [
        {
          "indexed": true,
          "internalType": "address",
          "name": "account",
          "type": "address"
        },
        {
          "indexed": true,
          "internalType": "address",
          "name": "operator",
          "type": "address"
        },
        {
          "indexed": false,
          "internalType": "bool",
          "name": "approved",
          "type": "bool"
        }
      ],
      "name": "ApprovalForAll",
      "type": "event"
    },
    {
      "anonymous": false,
      "inputs": [
        {
          "indexed": true,
          "internalType": "address",
          "name": "operator",
          "type": "address"
        },
        {
          "indexed": true,
          "internalType": "address",
          "name": "from",
          "type": "address"
        },
        {
          "indexed": true,
          "internalType": "address",
          "name": "to",
          "type": "address"
        },
        {
          "indexed": false,
          "internalType": "uint256[]",
          "name": "ids",
          "type": "uint256[]"
        },
        {
          "indexed": false,
          "internalType": "uint256[]",
          "name": "values",
          "type": "uint256[]"
        }
      ],
      "name": "TransferBatch",
      "type": "event"
    },
    {
      "anonymous": false,
      "inputs": [
        {
          "indexed": true,
          "internalType": "address",
          "name": "operator",
          "type": "address"
        },
        {
          "indexed": true,
          "internalType": "address",
          "name": "from",
          "type": "address"
        },
        {
          "indexed": true,
          "internalType": "address",
          "name": "to",
          "type": "address"
        },
        {
          "indexed": false,
          "internalType": "uint256",
          "name": "id",
          "type": "uint256"
        },
        {
          "indexed": false,
          "internalType": "uint256",
          "name": "value",
          "type": "uint256"
        }
      ],
      "name": "TransferSingle",
      "type": "event"
    },
    {
      "anonymous": false,
      "inputs": [
        {
          "indexed": false,
          "internalType": "string",
          "name": "value",
          "type": "string"
        },
        {
          "indexed": true,
          "internalType": "uint256",
          "name": "id",
          "type": "uint256"
        }
      ],
      "name": "URI",
      "type": "event"
    },
    {
      "inputs": [
        {
          "internalType": "address",
          "name": "account",
          "type": "address"
        },
        {
          "internalType": "uint256",
          "name": "id",
          "type": "uint256"
        }
      ],
      "name": "balanceOf",
      "outputs": [
        {
          "internalType": "uint256",
          "name": "",
          "type": "uint256"
        }
      ],
      "stateMutability": "view",
      "type": "function"
    },
    {
      "inputs": [
        {
          "internalType": "address[]",
          "name": "accounts",
          "type": "address[]"
        },
        {
          "internalType": "uint256[]",
          "name": "ids",
          "type": "uint256[]"
        }
      ],
      "name": "balanceOfBatch",
      "outputs": [
        {
          "internalType": "uint256[]",
          "name": "",
          "type": "uint256[]"
        }
      ],
      "stateMutability": "view",
      "type": "function"
    },
    {
      "inputs": [
        {
          "internalType": "address",
          "name": "account",
          "type": "address"
        },
        {
          "internalType": "address",
          "name": "operator",
          "type": "address"
        }
      ],
      "name": "isApprovedForAll",
      "outputs": [
        {
          "internalType": "bool",
          "name": "",
          "type": "bool"
        }
      ],
      "stateMutability": "view",
      "type": "function"
    },
    {
      "inputs": [
        {
          "internalType": "address",
          "name": "account",
          "type": "address"
        },
        {
          "internalType": "uint256",
          "name": "id",
          "type": "uint256"
        },
        {
          "internalType": "uint256",
          "name": "amount",
          "type": "uint256"
        },
        {
          "internalType": "string",
          "name": "tokenURI",
          "type": "string"
        },
        {
          "internalType": "bytes",
          "name": "data",
          "type": "bytes"
        }
      ],
      "name": "mint",
      "outputs": [],
      "stateMutability": "nonpayable",
      "type": "function"
    },
    {
      "inputs": [
        {
          "internalType": "address",
          "name": "to",
          "type": "address"
        },
        {
          "internalType": "uint256[]",
          "name": "ids",
          "type": "uint256[]"
        },
        {
          "internalType": "uint256[]",
          "name": "amounts",
          "type": "uint256[]"
        },
        {
          "internalType": "string[]",
          "name": "uris",
          "type": "string[]"
        },
        {
          "internalType": "bytes",
          "name": "data",
          "type": "bytes"
        }
      ],
      "name": "mintBatch",
      "outputs": [],
      "stateMutability": "nonpayable",
      "type": "function"
    },
    {
      "inputs": [],
      "name": "owner",
      "outputs": [
        {
          "internalType": "address",
          "name": "",
          "type": "address"
        }
      ],
      "stateMutability": "view",
      "type": "function"
    },
    {
      "inputs": [
        {
          "internalType": "address",
          "name": "from",
          "type": "address"
        },
        {
          "internalType": "address",
          "name": "to",
          "type": "address"
        },
        {
          "internalType": "uint256[]",
          "name": "ids",
          "type": "uint256[]"
        },
        {
          "internalType": "uint256[]",
          "name": "amounts",
          "type": "uint256[]"
        },
        {
          "internalType": "bytes",
          "name": "data",
          "type": "bytes"
        }
      ],
      "name": "safeBatchTransferFrom",
      "outputs": [],
      "stateMutability": "nonpayable",
      "type": "function"
    },
    {
      "inputs": [
        {
          "internalType": "address",
          "name": "from",
          "type": "address"
        },
        {
          "internalType": "address",
          "name": "to",
          "type": "address"
        },
        {
          "internalType": "uint256",
          "name": "id",
          "type": "uint256"
        },
        {
          "internalType": "uint256",
          "name": "amount",
          "type": "uint256"
        },
        {
          "internalType": "bytes",
          "name": "data",
          "type": "bytes"
        }
      ],
      "name": "safeTransferFrom",
      "outputs": [],
      "stateMutability": "nonpayable",
      "type": "function"
    },
    {
      "inputs": [
        {
          "internalType": "address",
          "name": "operator",
          "type": "address"
        },
        {
          "internalType": "bool",
          "name": "approved",
          "type": "bool"
        }
      ],
      "name": "setApprovalForAll",
      "outputs": [],
      "stateMutability": "nonpayable",
      "type": "function"
    },
    {
      "inputs": [
        {
          "internalType": "uint256",
          "name": "tokenId",
          "type": "uint256"
        },
        {
          "internalType": "string",
          "name": "newuri",
          "type": "string"
        }
      ],
      "name": "setTokenURI",
      "outputs": [],
      "stateMutability": "nonpayable",
      "type": "function"
    },
    {
      "inputs": [
        {
          "internalType": "bytes4",
          "name": "interfaceId",
          "type": "bytes4"
        }
      ],
      "name": "supportsInterface",
      "outputs": [
        {
          "internalType": "bool",
          "name": "",
          "type": "bool"
        }
      ],
      "stateMutability": "view",
      "type": "function"
    },
    {
      "inputs": [
        {
          "internalType": "uint256",
          "name": "tokenId",
          "type": "uint256"
        }
      ],
      "name": "uri",
      "outputs": [
        {
          "internalType": "string",
          "name": "",
          "type": "string"
        }
      ],
      "stateMutability": "view",
      "type": "function"
    }
  ],
  "bytecode": "0x60806040523480156200001157600080fd5b506040805160208101909152600081526200002c8162000068565b50600380546001600160a01b0319163390811790915560408051602081019091526000815262000062919060019081906200007a565b62000709565b60026200007682826200044d565b5050565b6001600160a01b038416620000e05760405162461bcd60e51b815260206004820152602160248201527f455243313135353a206d696e7420746f20746865207a65726f206164647265736044820152607360f81b60648201526084015b60405180910390fd5b336000620000ee856200019c565b90506000620000fd856200019c565b90506000868152602081815260408083206001600160a01b038b168452909152812080548792906200013190849062000519565b909155505060408051878152602081018790526001600160a01b03808a1692600092918716917fc3d58168c5ae7397731d063d5bbf3d657854427343f4c083240f7aacaa2d0f62910160405180910390a46200019383600089898989620001f2565b50505050505050565b60408051600180825281830190925260609160009190602080830190803683370190505090508281600081518110620001d957620001d962000541565b602090810291909101015292915050565b505050505050565b6001600160a01b0384163b15620001ea5760405163f23a6e6160e01b81526001600160a01b0385169063f23a6e61906200023990899089908890889088906004016200059f565b6020604051808303816000875af192505050801562000277575060408051601f3d908101601f191682019092526200027491810190620005e6565b60015b62000337576200028662000619565b806308c379a003620002c657506200029d62000665565b80620002aa5750620002c8565b8060405162461bcd60e51b8152600401620000d79190620006f4565b505b60405162461bcd60e51b815260206004820152603460248201527f455243313135353a207472616e7366657220746f206e6f6e2d4552433131353560448201527f526563656976657220696d706c656d656e7465720000000000000000000000006064820152608401620000d7565b6001600160e01b0319811663f23a6e6160e01b14620001935760405162461bcd60e51b815260206004820152602860248201527f455243313135353a204552433131353552656365697665722072656a656374656044820152676420746f6b656e7360c01b6064820152608401620000d7565b634e487b7160e01b600052604160045260246000fd5b600181811c90821680620003d557607f821691505b602082108103620003f657634e487b7160e01b600052602260045260246000fd5b50919050565b601f82111562000448576000816000526020600020601f850160051c81016020861015620004275750805b601f850160051c820191505b81811015620001ea5782815560010162000433565b505050565b81516001600160401b03811115620004695762000469620003aa565b62000481816200047a8454620003c0565b84620003fc565b602080601f831160018114620004b95760008415620004a05750858301515b600019600386901b1c1916600185901b178555620001ea565b600085815260208120601f198616915b82811015620004ea57888601518255948401946001909101908401620004c9565b5085821015620005095787850151600019600388901b60f8161c191681555b5050505050600190811b01905550565b808201808211156200053b57634e487b7160e01b600052601160045260246000fd5b92915050565b634e487b7160e01b600052603260045260246000fd5b6000815180845260005b818110156200057f5760208185018101518683018201520162000561565b506000602082860101526020601f19601f83011685010191505092915050565b6001600160a01b03868116825285166020820152604081018490526060810183905260a060808201819052600090620005db9083018462000557565b979650505050505050565b600060208284031215620005f957600080fd5b81516001600160e01b0319811681146200061257600080fd5b9392505050565b600060033d1115620006335760046000803e5060005160e01c5b90565b601f8201601f191681016001600160401b03811182821017156200065e576200065e620003aa565b6040525050565b600060443d1015620006745790565b6040516003193d81016004833e81513d6001600160401b038083116024840183101715620006a457505050505090565b8285019150815181811115620006bd5750505050505090565b843d8701016020828501011115620006d85750505050505090565b620006e96020828601018762000636565b509095945050505050565b60208152600062000612602083018462000557565b611ab880620007196000396000f3fe608060405234801561001057600080fd5b50600436106100b35760003560e01c80638da5cb5b116100715780638da5cb5b14610169578063a22cb46514610194578063a4b645eb146101a7578063b9571e84146101ba578063e985e9c5146101cd578063f242432a1461020957600080fd5b8062fdd58e146100b857806301ffc9a7146100de5780630e89341c14610101578063162094c4146101215780632eb2c2d6146101365780634e1273f414610149575b600080fd5b6100cb6100c6366004610efd565b61021c565b6040519081526020015b60405180910390f35b6100f16100ec366004610f40565b6102b5565b60405190151581526020016100d5565b61011461010f366004610f64565b610305565b6040516100d59190610fc3565b61013461012f36600461108d565b6103a7565b005b61013461014436600461116e565b6103ee565b61015c610157366004611218565b61043a565b6040516100d59190611315565b60035461017c906001600160a01b031681565b6040516001600160a01b0390911681526020016100d5565b6101346101a2366004611328565b61055c565b6101346101b5366004611364565b61056b565b6101346101c83660046113bc565b6105ab565b6100f16101db3660046114ea565b6001600160a01b03918216600090815260016020908152604080832093909416825291909152205460ff1690565b61013461021736600461151d565b61068a565b60006001600160a01b03831661028c5760405162461bcd60e51b815260206004820152602a60248201527f455243313135353a2061646472657373207a65726f206973206e6f742061207660448201526930b634b21037bbb732b960b11b60648201526084015b60405180910390fd5b506000818152602081815260408083206001600160a01b03861684529091529020545b92915050565b60006001600160e01b03198216636cdb3d1360e11b14806102e657506001600160e01b031982166303a24d0760e21b145b806102af57506301ffc9a760e01b6001600160e01b03198316146102af565b600081815260046020526040902080546060919061032290611582565b80601f016020809104026020016040519081016040528092919081815260200182805461034e90611582565b801561039b5780601f106103705761010080835404028352916020019161039b565b820191906000526020600020905b81548152906001019060200180831161037e57829003601f168201915b50505050509050919050565b6003546001600160a01b031633146103d15760405162461bcd60e51b8152600401610283906115bc565b60008281526004602052604090206103e98282611649565b505050565b6001600160a01b03851633148061040a575061040a85336101db565b6104265760405162461bcd60e51b815260040161028390611709565b61043385858585856106cf565b5050505050565b6060815183511461049f5760405162461bcd60e51b815260206004820152602960248201527f455243313135353a206163636f756e747320616e6420696473206c656e677468604482015268040dad2e6dac2e8c6d60bb1b6064820152608401610283565b6000835167ffffffffffffffff8111156104bb576104bb610fd6565b6040519080825280602002602001820160405280156104e4578160200160208202803683370190505b50905060005b84518110156105545761052f85828151811061050857610508611757565b602002602001015185838151811061052257610522611757565b602002602001015161021c565b82828151811061054157610541611757565b60209081029190910101526001016104ea565b509392505050565b61056733838361085c565b5050565b6003546001600160a01b031633146105955760405162461bcd60e51b8152600401610283906115bc565b6105a18585858461093c565b61043384836103a7565b6003546001600160a01b031633146105d55760405162461bcd60e51b8152600401610283906115bc565b81518451146106265760405162461bcd60e51b815260206004820152601c60248201527f69647320616e642075726973206c656e677468206d69736d61746368000000006044820152606401610283565b61063285858584610a16565b60005b84518110156106825761067a85828151811061065357610653611757565b602002602001015184838151811061066d5761066d611757565b60200260200101516103a7565b600101610635565b505050505050565b6001600160a01b0385163314806106a657506106a685336101db565b6106c25760405162461bcd60e51b815260040161028390611709565b6104338585858585610b56565b81518351146106f05760405162461bcd60e51b81526004016102839061176d565b6001600160a01b0384166107165760405162461bcd60e51b8152600401610283906117b5565b3360005b84518110156107f657600085828151811061073757610737611757565b60200260200101519050600085838151811061075557610755611757565b602090810291909101810151600084815280835260408082206001600160a01b038e1683529093529190912054909150818110156107a55760405162461bcd60e51b8152600401610283906117fa565b6000838152602081815260408083206001600160a01b038e8116855292528083208585039055908b168252812080548492906107e2908490611844565b90915550506001909301925061071a915050565b50846001600160a01b0316866001600160a01b0316826001600160a01b03167f4a39dc06d4c0dbc64b70af90fd698a233a518aa5d07e595d983b8c0526c8f7fb8787604051610846929190611865565b60405180910390a4610682818787878787610c80565b816001600160a01b0316836001600160a01b0316036108cf5760405162461bcd60e51b815260206004820152602960248201527f455243313135353a2073657474696e6720617070726f76616c20737461747573604482015268103337b91039b2b63360b91b6064820152608401610283565b6001600160a01b03838116600081815260016020908152604080832094871680845294825291829020805460ff191686151590811790915591519182527f17307eab39ab6107e8899845ad3d59bd9653f200f220920489ca2b5937696c31910160405180910390a3505050565b6001600160a01b0384166109625760405162461bcd60e51b815260040161028390611893565b33600061096e85610ddb565b9050600061097b85610ddb565b90506000868152602081815260408083206001600160a01b038b168452909152812080548792906109ad908490611844565b909155505060408051878152602081018790526001600160a01b03808a1692600092918716917fc3d58168c5ae7397731d063d5bbf3d657854427343f4c083240f7aacaa2d0f62910160405180910390a4610a0d83600089898989610e26565b50505050505050565b6001600160a01b038416610a3c5760405162461bcd60e51b815260040161028390611893565b8151835114610a5d5760405162461bcd60e51b81526004016102839061176d565b3360005b8451811015610aee57838181518110610a7c57610a7c611757565b6020026020010151600080878481518110610a9957610a99611757565b602002602001015181526020019081526020016000206000886001600160a01b03166001600160a01b031681526020019081526020016000206000828254610ae19190611844565b9091555050600101610a61565b50846001600160a01b031660006001600160a01b0316826001600160a01b03167f4a39dc06d4c0dbc64b70af90fd698a233a518aa5d07e595d983b8c0526c8f7fb8787604051610b3f929190611865565b60405180910390a461043381600087878787610c80565b6001600160a01b038416610b7c5760405162461bcd60e51b8152600401610283906117b5565b336000610b8885610ddb565b90506000610b9585610ddb565b90506000868152602081815260408083206001600160a01b038c16845290915290205485811015610bd85760405162461bcd60e51b8152600401610283906117fa565b6000878152602081815260408083206001600160a01b038d8116855292528083208985039055908a16825281208054889290610c15908490611844565b909155505060408051888152602081018890526001600160a01b03808b16928c821692918816917fc3d58168c5ae7397731d063d5bbf3d657854427343f4c083240f7aacaa2d0f62910160405180910390a4610c75848a8a8a8a8a610e26565b505050505050505050565b6001600160a01b0384163b156106825760405163bc197c8160e01b81526001600160a01b0385169063bc197c8190610cc490899089908890889088906004016118d4565b6020604051808303816000875af1925050508015610cff575060408051601f3d908101601f19168201909252610cfc91810190611932565b60015b610dab57610d0b61194f565b806308c379a003610d445750610d1f61196b565b80610d2a5750610d46565b8060405162461bcd60e51b81526004016102839190610fc3565b505b60405162461bcd60e51b815260206004820152603460248201527f455243313135353a207472616e7366657220746f206e6f6e2d455243313135356044820152732932b1b2b4bb32b91034b6b83632b6b2b73a32b960611b6064820152608401610283565b6001600160e01b0319811663bc197c8160e01b14610a0d5760405162461bcd60e51b8152600401610283906119f5565b60408051600180825281830190925260609160009190602080830190803683370190505090508281600081518110610e1557610e15611757565b602090810291909101015292915050565b6001600160a01b0384163b156106825760405163f23a6e6160e01b81526001600160a01b0385169063f23a6e6190610e6a9089908990889088908890600401611a3d565b6020604051808303816000875af1925050508015610ea5575060408051601f3d908101601f19168201909252610ea291810190611932565b60015b610eb157610d0b61194f565b6001600160e01b0319811663f23a6e6160e01b14610a0d5760405162461bcd60e51b8152600401610283906119f5565b80356001600160a01b0381168114610ef857600080fd5b919050565b60008060408385031215610f1057600080fd5b610f1983610ee1565b946020939093013593505050565b6001600160e01b031981168114610f3d57600080fd5b50565b600060208284031215610f5257600080fd5b8135610f5d81610f27565b9392505050565b600060208284031215610f7657600080fd5b5035919050565b6000815180845260005b81811015610fa357602081850181015186830182015201610f87565b506000602082860101526020601f19601f83011685010191505092915050565b602081526000610f5d6020830184610f7d565b634e487b7160e01b600052604160045260246000fd5b601f8201601f1916810167ffffffffffffffff8111828210171561101257611012610fd6565b6040525050565b600082601f83011261102a57600080fd5b813567ffffffffffffffff81111561104457611044610fd6565b60405161105b601f8301601f191660200182610fec565b81815284602083860101111561107057600080fd5b816020850160208301376000918101602001919091529392505050565b600080604083850312156110a057600080fd5b82359150602083013567ffffffffffffffff8111156110be57600080fd5b6110ca85828601611019565b9150509250929050565b600067ffffffffffffffff8211156110ee576110ee610fd6565b5060051b60200190565b600082601f83011261110957600080fd5b81356020611116826110d4565b6040516111238282610fec565b80915083815260208101915060208460051b87010193508684111561114757600080fd5b602086015b84811015611163578035835291830191830161114c565b509695505050505050565b600080600080600060a0868803121561118657600080fd5b61118f86610ee1565b945061119d60208701610ee1565b9350604086013567ffffffffffffffff808211156111ba57600080fd5b6111c689838a016110f8565b945060608801359150808211156111dc57600080fd5b6111e889838a016110f8565b935060808801359150808211156111fe57600080fd5b5061120b88828901611019565b9150509295509295909350565b6000806040838503121561122b57600080fd5b823567ffffffffffffffff8082111561124357600080fd5b818501915085601f83011261125757600080fd5b81356020611264826110d4565b6040516112718282610fec565b83815260059390931b850182019282810191508984111561129157600080fd5b948201945b838610156112b6576112a786610ee1565b82529482019490820190611296565b965050860135925050808211156112cc57600080fd5b506110ca858286016110f8565b60008151808452602080850194506020840160005b8381101561130a578151875295820195908201906001016112ee565b509495945050505050565b602081526000610f5d60208301846112d9565b6000806040838503121561133b57600080fd5b61134483610ee1565b91506020830135801515811461135957600080fd5b809150509250929050565b600080600080600060a0868803121561137c57600080fd5b61138586610ee1565b94506020860135935060408601359250606086013567ffffffffffffffff808211156113b057600080fd5b6111e889838a01611019565b600080600080600060a086880312156113d457600080fd5b6113dd86610ee1565b945060208087013567ffffffffffffffff808211156113fb57600080fd5b6114078a838b016110f8565b9650604089013591508082111561141d57600080fd5b6114298a838b016110f8565b9550606089013591508082111561143f57600080fd5b818901915089601f83011261145357600080fd5b813561145e816110d4565b60405161146b8282610fec565b82815260059290921b840185019185810191508c83111561148b57600080fd5b8585015b838110156114c3578035858111156114a75760008081fd5b6114b58f89838a0101611019565b84525091860191860161148f565b509650505060808901359250808311156114dc57600080fd5b505061120b88828901611019565b600080604083850312156114fd57600080fd5b61150683610ee1565b915061151460208401610ee1565b90509250929050565b600080600080600060a0868803121561153557600080fd5b61153e86610ee1565b945061154c60208701610ee1565b93506040860135925060608601359150608086013567ffffffffffffffff81111561157657600080fd5b61120b88828901611019565b600181811c9082168061159657607f821691505b6020821081036115b657634e487b7160e01b600052602260045260246000fd5b50919050565b60208082526025908201527f4f6e6c7920746865206f776e65722063616e2063616c6c20746869732066756e60408201526431ba34b7b760d91b606082015260800190565b601f8211156103e9576000816000526020600020601f850160051c8101602086101561162a5750805b601f850160051c820191505b8181101561068257828155600101611636565b815167ffffffffffffffff81111561166357611663610fd6565b611677816116718454611582565b84611601565b602080601f8311600181146116ac57600084156116945750858301515b600019600386901b1c1916600185901b178555610682565b600085815260208120601f198616915b828110156116db578886015182559484019460019091019084016116bc565b50858210156116f95787850151600019600388901b60f8161c191681555b5050505050600190811b01905550565b6020808252602e908201527f455243313135353a2063616c6c6572206973206e6f7420746f6b656e206f776e60408201526d195c881bdc88185c1c1c9bdd995960921b606082015260800190565b634e487b7160e01b600052603260045260246000fd5b60208082526028908201527f455243313135353a2069647320616e6420616d6f756e7473206c656e677468206040820152670dad2e6dac2e8c6d60c31b606082015260800190565b60208082526025908201527f455243313135353a207472616e7366657220746f20746865207a65726f206164604082015264647265737360d81b606082015260800190565b6020808252602a908201527f455243313135353a20696e73756666696369656e742062616c616e636520666f60408201526939103a3930b739b332b960b11b606082015260800190565b808201808211156102af57634e487b7160e01b600052601160045260246000fd5b60408152600061187860408301856112d9565b828103602084015261188a81856112d9565b95945050505050565b60208082526021908201527f455243313135353a206d696e7420746f20746865207a65726f206164647265736040820152607360f81b606082015260800190565b6001600160a01b0386811682528516602082015260a060408201819052600090611900908301866112d9565b828103606084015261191281866112d9565b905082810360808401526119268185610f7d565b98975050505050505050565b60006020828403121561194457600080fd5b8151610f5d81610f27565b600060033d11156119685760046000803e5060005160e01c5b90565b600060443d10156119795790565b6040516003193d81016004833e81513d67ffffffffffffffff81602484011181841117156119a957505050505090565b82850191508151818111156119c15750505050505090565b843d87010160208285010111156119db5750505050505090565b6119ea60208286010187610fec565b509095945050505050565b60208082526028908201527f455243313135353a204552433131353552656365697665722072656a656374656040820152676420746f6b656e7360c01b606082015260800190565b6001600160a01b03868116825285166020820152604081018490526060810183905260a060808201819052600090611a7790830184610f7d565b97965050505050505056fea2646970667358221220c70925e2a437ec6e9cde936fff9daee44323feac38b9b51bd4163e173f205a9964736f6c63430008180033",
  "linkReferences": {},
  "deployedLinkReferences": {}
}