{
  "_format": "hh-sol-artifact-1",
  "contractName": "InventoryManagement",
  "sourceName": "contracts/supplyChain/InventoryManagement.sol",
  "abi": [
    {
      "inputs": [],
      "stateMutability": "nonpayable",
      "type": "constructor"
    },
    {
      "anonymous": false,
      "inputs": [
        {
          "indexed": true,
          "internalType": "uint256",
          "name": "itemId",
          "type": "uint256"
        }
      ],
      "name": "ItemDeleted",
      "type": "event"
    },
    {
      "anonymous": false,
      "inputs": [
        {
          "indexed": true,
          "internalType": "uint256",
          "name": "itemId",
          "type": "uint256"
        },
        {
          "indexed": false,
          "internalType": "string",
          "name": "name",
          "type": "string"
        },
        {
          "indexed": false,
          "internalType": "string",
          "name": "description",
          "type": "string"
        },
        {
          "indexed": false,
          "internalType": "uint256",
          "name": "reorderThreshold",
          "type": "uint256"
        }
      ],
      "name": "ItemRegistered",
      "type": "event"
    },
    {
      "anonymous": false,
      "inputs": [
        {
          "indexed": true,
          "internalType": "uint256",
          "name": "itemId",
          "type": "uint256"
        },
        {
          "indexed": false,
          "internalType": "uint256",
          "name": "quantity",
          "type": "uint256"
        },
        {
          "indexed": false,
          "internalType": "string",
          "name": "fromLocation",
          "type": "string"
        },
        {
          "indexed": false,
          "internalType": "string",
          "name": "toLocation",
          "type": "string"
        },
        {
          "indexed": false,
          "internalType": "uint256",
          "name": "timestamp",
          "type": "uint256"
        },
        {
          "indexed": false,
          "internalType": "string",
          "name": "note",
          "type": "string"
        }
      ],
      "name": "ItemTransferred",
      "type": "event"
    },
    {
      "anonymous": false,
      "inputs": [
        {
          "indexed": false,
          "internalType": "address",
          "name": "automatedProcess",
          "type": "address"
        }
      ],
      "name": "SetAutomatedProcess",
      "type": "event"
    },
    {
      "anonymous": false,
      "inputs": [
        {
          "indexed": true,
          "internalType": "uint256",
          "name": "itemId",
          "type": "uint256"
        },
        {
          "indexed": false,
          "internalType": "uint256",
          "name": "threshold",
          "type": "uint256"
        }
      ],
      "name": "SetReorderThreshold",
      "type": "event"
    },
    {
      "anonymous": false,
      "inputs": [
        {
          "indexed": true,
          "internalType": "uint256",
          "name": "itemId",
          "type": "uint256"
        },
        {
          "indexed": false,
          "internalType": "uint256",
          "name": "newQuantity",
          "type": "uint256"
        },
        {
          "indexed": false,
          "internalType": "enum InventoryManagement.MovementType",
          "name": "movementType",
          "type": "uint8"
        },
        {
          "indexed": false,
          "internalType": "uint256",
          "name": "timestamp",
          "type": "uint256"
        },
        {
          "indexed": false,
          "internalType": "string",
          "name": "note",
          "type": "string"
        }
      ],
      "name": "StockUpdated",
      "type": "event"
    },
    {
      "inputs": [],
      "name": "automatedProcess",
      "outputs": [
        {
          "internalType": "address",
          "name": "",
          "type": "address"
        }
      ],
      "stateMutability": "view",
      "type": "function"
    },
    {
      "inputs": [
        {
          "internalType": "uint256",
          "name": "_itemId",
          "type": "uint256"
        }
      ],
      "name": "deleteItem",
      "outputs": [],
      "stateMutability": "nonpayable",
      "type": "function"
    },
    {
      "inputs": [
        {
          "internalType": "uint256",
          "name": "_itemId",
          "type": "uint256"
        }
      ],
      "name": "getTransactionHistory",
      "outputs": [
        {
          "components": [
            {
              "internalType": "uint256",
              "name": "quantity",
              "type": "uint256"
            },
            {
              "internalType": "enum InventoryManagement.MovementType",
              "name": "movementType",
              "type": "uint8"
            },
            {
              "internalType": "uint256",
              "name": "timestamp",
              "type": "uint256"
            },
            {
              "internalType": "string",
              "name": "location",
              "type": "string"
            },
            {
              "internalType": "string",
              "name": "note",
              "type": "string"
            },
            {
              "internalType": "address",
              "name": "user",
              "type": "address"
            }
          ],
          "internalType": "struct InventoryManagement.InventoryTransaction[]",
          "name": "",
          "type": "tuple[]"
        }
      ],
      "stateMutability": "view",
      "type": "function"
    },
    {
      "inputs": [
        {
          "internalType": "uint256",
          "name": "_itemId",
          "type": "uint256"
        }
      ],
      "name": "isBelowThreshold",
      "outputs": [
        {
          "internalType": "bool",
          "name": "",
          "type": "bool"
        }
      ],
      "stateMutability": "view",
      "type": "function"
    },
    {
      "inputs": [
        {
          "internalType": "uint256",
          "name": "",
          "type": "uint256"
        }
      ],
      "name": "items",
      "outputs": [
        {
          "internalType": "string",
          "name": "name",
          "type": "string"
        },
        {
          "internalType": "string",
          "name": "description",
          "type": "string"
        },
        {
          "internalType": "uint256",
          "name": "quantity",
          "type": "uint256"
        },
        {
          "internalType": "uint256",
          "name": "reorderThreshold",
          "type": "uint256"
        }
      ],
      "stateMutability": "view",
      "type": "function"
    },
    {
      "inputs": [],
      "name": "nextItemId",
      "outputs": [
        {
          "internalType": "uint256",
          "name": "",
          "type": "uint256"
        }
      ],
      "stateMutability": "view",
      "type": "function"
    },
    {
      "inputs": [],
      "name": "owner",
      "outputs": [
        {
          "internalType": "address",
          "name": "",
          "type": "address"
        }
      ],
      "stateMutability": "view",
      "type": "function"
    },
    {
      "inputs": [
        {
          "internalType": "string",
          "name": "_name",
          "type": "string"
        },
        {
          "internalType": "string",
          "name": "_description",
          "type": "string"
        },
        {
          "internalType": "uint256",
          "name": "_reorderThreshold",
          "type": "uint256"
        }
      ],
      "name": "registerItem",
      "outputs": [
        {
          "internalType": "uint256",
          "name": "",
          "type": "uint256"
        }
      ],
      "stateMutability": "nonpayable",
      "type": "function"
    },
    {
      "inputs": [
        {
          "internalType": "address",
          "name": "_automatedProcess",
          "type": "address"
        }
      ],
      "name": "setAutomatedProcess",
      "outputs": [],
      "stateMutability": "nonpayable",
      "type": "function"
    },
    {
      "inputs": [
        {
          "internalType": "uint256",
          "name": "_itemId",
          "type": "uint256"
        },
        {
          "internalType": "uint256",
          "name": "_threshold",
          "type": "uint256"
        }
      ],
      "name": "setReorderThreshold",
      "outputs": [],
      "stateMutability": "nonpayable",
      "type": "function"
    },
    {
      "inputs": [
        {
          "internalType": "uint256",
          "name": "",
          "type": "uint256"
        },
        {
          "internalType": "uint256",
          "name": "",
          "type": "uint256"
        }
      ],
      "name": "transactions",
      "outputs": [
        {
          "internalType": "uint256",
          "name": "quantity",
          "type": "uint256"
        },
        {
          "internalType": "enum InventoryManagement.MovementType",
          "name": "movementType",
          "type": "uint8"
        },
        {
          "internalType": "uint256",
          "name": "timestamp",
          "type": "uint256"
        },
        {
          "internalType": "string",
          "name": "location",
          "type": "string"
        },
        {
          "internalType": "string",
          "name": "note",
          "type": "string"
        },
        {
          "internalType": "address",
          "name": "user",
          "type": "address"
        }
      ],
      "stateMutability": "view",
      "type": "function"
    },
    {
      "inputs": [
        {
          "internalType": "uint256",
          "name": "_itemId",
          "type": "uint256"
        },
        {
          "internalType": "uint256",
          "name": "_quantity",
          "type": "uint256"
        },
        {
          "internalType": "string",
          "name": "_fromLocation",
          "type": "string"
        },
        {
          "internalType": "string",
          "name": "_toLocation",
          "type": "string"
        },
        {
          "internalType": "string",
          "name": "_note",
          "type": "string"
        }
      ],
      "name": "transferItem",
      "outputs": [],
      "stateMutability": "nonpayable",
      "type": "function"
    },
    {
      "inputs": [
        {
          "internalType": "uint256",
          "name": "_itemId",
          "type": "uint256"
        },
        {
          "internalType": "uint256",
          "name": "_quantity",
          "type": "uint256"
        },
        {
          "internalType": "enum InventoryManagement.MovementType",
          "name": "_movementType",
          "type": "uint8"
        },
        {
          "internalType": "string",
          "name": "_location",
          "type": "string"
        },
        {
          "internalType": "string",
          "name": "_note",
          "type": "string"
        }
      ],
      "name": "updateStock",
      "outputs": [],
      "stateMutability": "nonpayable",
      "type": "function"
    }
  ],
  "bytecode": "0x608060405234801561001057600080fd5b50600080546001600160a01b03191633179055600180556116ff806100366000396000f3fe608060405234801561001057600080fd5b50600436106100cf5760003560e01c80637c7fe1131161008c5780639a95899e116100665780639a95899e146101c4578063bfb231d2146101d7578063ee1efe41146101fa578063f692f5e71461020d57600080fd5b80637c7fe1131461017b5780637ca27cf41461019e5780638da5cb5b146101b157600080fd5b80632f992114146100d45780634eaf9db6146101045780635eb16be71461012957806363b69ab91461013e578063654fc833146101515780636a86897414610164575b600080fd5b6002546100e7906001600160a01b031681565b6040516001600160a01b0390911681526020015b60405180910390f35b610117610112366004610fd7565b61022d565b6040516100fb96959493929190611077565b61013c6101373660046110d1565b6103a0565b005b61013c61014c366004610fd7565b610427565b61013c61015f366004611101565b6104e2565b61016d60015481565b6040519081526020016100fb565b61018e610189366004611101565b6105ad565b60405190151581526020016100fb565b61013c6101ac3660046111bd565b61060e565b6000546100e7906001600160a01b031681565b61016d6101d2366004611259565b6107f7565b6101ea6101e5366004611101565b6108e8565b6040516100fb94939291906112c6565b61013c6102083660046112ff565b610a20565b61022061021b366004611101565b610d88565b6040516100fb9190611351565b6004602052816000526040600020818154811061024957600080fd5b6000918252602090912060069091020180546001820154600283015460038401805493965060ff9092169450929161028090611417565b80601f01602080910402602001604051908101604052809291908181526020018280546102ac90611417565b80156102f95780601f106102ce576101008083540402835291602001916102f9565b820191906000526020600020905b8154815290600101906020018083116102dc57829003601f168201915b50505050509080600401805461030e90611417565b80601f016020809104026020016040519081016040528092919081815260200182805461033a90611417565b80156103875780601f1061035c57610100808354040283529160200191610387565b820191906000526020600020905b81548152906001019060200180831161036a57829003601f168201915b505050600590930154919250506001600160a01b031686565b6000546001600160a01b031633146103d35760405162461bcd60e51b81526004016103ca9061144b565b60405180910390fd5b600280546001600160a01b0319166001600160a01b0383169081179091556040519081527f9c7e50e6991669ebb0da284e5332ebe4916af0b4ba8ffb1ab1496f77f371ccdd9060200160405180910390a150565b6000546001600160a01b031633146104515760405162461bcd60e51b81526004016103ca9061144b565b600082815260036020526040812080548492919061046e90611417565b90501161048d5760405162461bcd60e51b81526004016103ca90611473565b600083815260036020819052604091829020018390555183907fef45bbaacbbe4c958825abc85136b0307b434f29ddd6e95d658d0848016ec981906104d59085815260200190565b60405180910390a2505050565b6000546001600160a01b0316331461050c5760405162461bcd60e51b81526004016103ca9061144b565b600081815260036020526040812080548392919061052990611417565b9050116105485760405162461bcd60e51b81526004016103ca90611473565b6000828152600360205260408120906105618282610f81565b61056f600183016000610f81565b50600060028201819055600390910181905560405183917f3d0be3a3bbdb36b253d40a546d15d6b7f402fc43e4cd4a067af359b0763b6f3c91a25050565b60008181526003602052604081208054839183916105ca90611417565b9050116105e95760405162461bcd60e51b81526004016103ca90611473565b6000838152600360208190526040909120908101546002909101541091505b50919050565b6000546001600160a01b031633146106385760405162461bcd60e51b81526004016103ca9061144b565b600085815260036020526040812080548792919061065590611417565b9050116106745760405162461bcd60e51b81526004016103ca90611473565b6000868152600360205260409020600201548511156106ca5760405162461bcd60e51b8152602060048201526012602482015271496e73756666696369656e742073746f636b60701b60448201526064016103ca565b6000868152600460209081526040808320815160c0810183528981526002818501908152429382019390935260608101889052608081018790523360a0820152815460018082018455928652939094208451600690940201928355905182820180549192909160ff19169083600381111561074757610747610ff9565b0217905550604082015160028201556060820151600382019061076a90826114f1565b506080820151600482019061077f90826114f1565b5060a08201518160050160006101000a8154816001600160a01b0302191690836001600160a01b031602179055505050857fb7949221f7fb57bc7a47ac9d9eea04a47f32aaf91498eb2003caf8c8303a335786868642876040516107e79594939291906115b1565b60405180910390a2505050505050565b600080546001600160a01b031633146108225760405162461bcd60e51b81526004016103ca9061144b565b6001546040805160808101825286815260208082018790526000828401819052606083018790528481526003909152919091208151819061086390826114f1565b506020820151600182019061087890826114f1565b50604082015160028201556060909101516003909101556001805490600061089f83611618565b9190505550807ffa1284f6a3ab122f77ce1ee3a1a71e2d17e75ac703f3ba4578033b22494a4dd18686866040516108d893929190611631565b60405180910390a2949350505050565b60036020526000908152604090208054819061090390611417565b80601f016020809104026020016040519081016040528092919081815260200182805461092f90611417565b801561097c5780601f106109515761010080835404028352916020019161097c565b820191906000526020600020905b81548152906001019060200180831161095f57829003601f168201915b50505050509080600101805461099190611417565b80601f01602080910402602001604051908101604052809291908181526020018280546109bd90611417565b8015610a0a5780601f106109df57610100808354040283529160200191610a0a565b820191906000526020600020905b8154815290600101906020018083116109ed57829003601f168201915b5050505050908060020154908060030154905084565b6000858152600360205260408120805487929190610a3d90611417565b905011610a5c5760405162461bcd60e51b81526004016103ca90611473565b6000546001600160a01b03163314610b3a576002546001600160a01b0316610ac65760405162461bcd60e51b815260206004820152601960248201527f4175746f6d617465642050726f63657373206e6f74207365740000000000000060448201526064016103ca565b6002546001600160a01b03163314610b3a5760405162461bcd60e51b815260206004820152603160248201527f4f6e6c7920746865204175746f6d617465642050726f636573732063616e206360448201527030b636103a3434b990333ab731ba34b7b760791b60648201526084016103ca565b6000846003811115610b4e57610b4e610ff9565b03610b7f5760008681526003602052604081206002018054879290610b74908490611667565b90915550610c3d9050565b6001846003811115610b9357610b93610ff9565b03610c0f57600086815260036020526040902060020154851115610bee5760405162461bcd60e51b8152602060048201526012602482015271496e73756666696369656e742073746f636b60701b60448201526064016103ca565b60008681526003602052604081206002018054879290610b74908490611680565b6003846003811115610c2357610c23610ff9565b03610c3d5760008681526003602052604090206002018590555b600460008781526020019081526020016000206040518060c00160405280878152602001866003811115610c7357610c73610ff9565b8152426020808301919091526040820187905260608201869052336080909201919091528254600181810185556000948552938290208351600690920201908155908201518184018054939492939192909160ff191690836003811115610cdc57610cdc610ff9565b02179055506040820151600282015560608201516003820190610cff90826114f1565b5060808201516004820190610d1490826114f1565b5060a09190910151600590910180546001600160a01b0319166001600160a01b039092169190911790556000868152600360205260409081902060020154905187917f7d9e31aae1f38e858b646e80602ddf8b1531b0017f17093473a35c3420be9c06916107e79190889042908890611693565b606060046000838152602001908152602001600020805480602002602001604051908101604052809291908181526020016000905b82821015610f7657838290600052602060002090600602016040518060c0016040529081600082015481526020016001820160009054906101000a900460ff166003811115610e0e57610e0e610ff9565b6003811115610e1f57610e1f610ff9565b815260200160028201548152602001600382018054610e3d90611417565b80601f0160208091040260200160405190810160405280929190818152602001828054610e6990611417565b8015610eb65780601f10610e8b57610100808354040283529160200191610eb6565b820191906000526020600020905b815481529060010190602001808311610e9957829003601f168201915b50505050508152602001600482018054610ecf90611417565b80601f0160208091040260200160405190810160405280929190818152602001828054610efb90611417565b8015610f485780601f10610f1d57610100808354040283529160200191610f48565b820191906000526020600020905b815481529060010190602001808311610f2b57829003601f168201915b5050509183525050600591909101546001600160a01b03166020918201529082526001929092019101610dbd565b505050509050919050565b508054610f8d90611417565b6000825580601f10610f9d575050565b601f016020900490600052602060002090810190610fbb9190610fbe565b50565b5b80821115610fd35760008155600101610fbf565b5090565b60008060408385031215610fea57600080fd5b50508035926020909101359150565b634e487b7160e01b600052602160045260246000fd5b6004811061102d57634e487b7160e01b600052602160045260246000fd5b9052565b6000815180845260005b818110156110575760208185018101518683018201520161103b565b506000602082860101526020601f19601f83011685010191505092915050565b868152611087602082018761100f565b84604082015260c0606082015260006110a360c0830186611031565b82810360808401526110b58186611031565b91505060018060a01b03831660a0830152979650505050505050565b6000602082840312156110e357600080fd5b81356001600160a01b03811681146110fa57600080fd5b9392505050565b60006020828403121561111357600080fd5b5035919050565b634e487b7160e01b600052604160045260246000fd5b600082601f83011261114157600080fd5b813567ffffffffffffffff8082111561115c5761115c61111a565b604051601f8301601f19908116603f011681019082821181831017156111845761118461111a565b8160405283815286602085880101111561119d57600080fd5b836020870160208301376000602085830101528094505050505092915050565b600080600080600060a086880312156111d557600080fd5b8535945060208601359350604086013567ffffffffffffffff808211156111fb57600080fd5b61120789838a01611130565b9450606088013591508082111561121d57600080fd5b61122989838a01611130565b9350608088013591508082111561123f57600080fd5b5061124c88828901611130565b9150509295509295909350565b60008060006060848603121561126e57600080fd5b833567ffffffffffffffff8082111561128657600080fd5b61129287838801611130565b945060208601359150808211156112a857600080fd5b506112b586828701611130565b925050604084013590509250925092565b6080815260006112d96080830187611031565b82810360208401526112eb8187611031565b604084019590955250506060015292915050565b600080600080600060a0868803121561131757600080fd5b853594506020860135935060408601356004811061133457600080fd5b9250606086013567ffffffffffffffff8082111561121d57600080fd5b600060208083018184528085518083526040925060408601915060408160051b87010184880160005b8381101561140957603f19898403018552815160c081518552888201516113a38a87018261100f565b50878201518886015260608083015182828801526113c383880182611031565b92505050608080830151868303828801526113de8382611031565b60a0948501516001600160a01b0316979094019690965250509487019492509086019060010161137a565b509098975050505050505050565b600181811c9082168061142b57607f821691505b60208210810361060857634e487b7160e01b600052602260045260246000fd5b6020808252600e908201526d139bdd08105d5d1a1bdc9a5e995960921b604082015260600190565b602080825260139082015272125d195b48191bd95cc81b9bdd08195e1a5cdd606a1b604082015260600190565b601f8211156114ec576000816000526020600020601f850160051c810160208610156114c95750805b601f850160051c820191505b818110156114e8578281556001016114d5565b5050505b505050565b815167ffffffffffffffff81111561150b5761150b61111a565b61151f816115198454611417565b846114a0565b602080601f831160018114611554576000841561153c5750858301515b600019600386901b1c1916600185901b1785556114e8565b600085815260208120601f198616915b8281101561158357888601518255948401946001909101908401611564565b50858210156115a15787850151600019600388901b60f8161c191681555b5050505050600190811b01905550565b85815260a0602082015260006115ca60a0830187611031565b82810360408401526115dc8187611031565b905084606084015282810360808401526115f68185611031565b98975050505050505050565b634e487b7160e01b600052601160045260246000fd5b60006001820161162a5761162a611602565b5060010190565b6060815260006116446060830186611031565b82810360208401526116568186611031565b915050826040830152949350505050565b8082018082111561167a5761167a611602565b92915050565b8181038181111561167a5761167a611602565b8481526116a3602082018561100f565b8260408201526080606082015260006116bf6080830184611031565b969550505050505056fea2646970667358221220e2c57ac9f8a3c5983c7c63e00c4ef0da972e3ffe57a7099cf67fb5626580338f64736f6c63430008180033",
  "linkReferences": {},
  "deployedLinkReferences": {}
}