{
  "_format": "hh-sol-artifact-1",
  "contractName": "ConstantProduct",
  "sourceName": "contracts/finance/ConstantProduct.sol",
  "abi": [
    {
      "inputs": [
        {
          "internalType": "contract IERC20",
          "name": "_tokenA",
          "type": "address"
        },
        {
          "internalType": "contract IERC20",
          "name": "_tokenB",
          "type": "address"
        }
      ],
      "stateMutability": "nonpayable",
      "type": "constructor"
    },
    {
      "anonymous": false,
      "inputs": [
        {
          "indexed": true,
          "internalType": "address",
          "name": "to",
          "type": "address"
        },
        {
          "indexed": false,
          "internalType": "uint256",
          "name": "shares",
          "type": "uint256"
        }
      ],
      "name": "AddedLiquidity",
      "type": "event"
    },
    {
      "anonymous": false,
      "inputs": [
        {
          "indexed": true,
          "internalType": "address",
          "name": "from",
          "type": "address"
        },
        {
          "indexed": false,
          "internalType": "uint256",
          "name": "shares",
          "type": "uint256"
        }
      ],
      "name": "RemovedLiquidity",
      "type": "event"
    },
    {
      "anonymous": false,
      "inputs": [
        {
          "indexed": true,
          "internalType": "address",
          "name": "from",
          "type": "address"
        },
        {
          "indexed": true,
          "internalType": "address",
          "name": "to",
          "type": "address"
        },
        {
          "indexed": false,
          "internalType": "uint256",
          "name": "amountReceived",
          "type": "uint256"
        },
        {
          "indexed": false,
          "internalType": "uint256",
          "name": "amountReturned",
          "type": "uint256"
        }
      ],
      "name": "Swapped",
      "type": "event"
    },
    {
      "inputs": [
        {
          "internalType": "uint256",
          "name": "_amountA",
          "type": "uint256"
        },
        {
          "internalType": "uint256",
          "name": "_amountB",
          "type": "uint256"
        }
      ],
      "name": "addLiquidity",
      "outputs": [
        {
          "internalType": "uint256",
          "name": "_shares",
          "type": "uint256"
        }
      ],
      "stateMutability": "nonpayable",
      "type": "function"
    },
    {
      "inputs": [
        {
          "internalType": "address",
          "name": "",
          "type": "address"
        }
      ],
      "name": "balanceOf",
      "outputs": [
        {
          "internalType": "uint256",
          "name": "",
          "type": "uint256"
        }
      ],
      "stateMutability": "view",
      "type": "function"
    },
    {
      "inputs": [
        {
          "internalType": "address",
          "name": "_tokenIn",
          "type": "address"
        },
        {
          "internalType": "uint256",
          "name": "_amountIn",
          "type": "uint256"
        }
      ],
      "name": "getAmountOut",
      "outputs": [
        {
          "internalType": "uint256",
          "name": "_amountOut",
          "type": "uint256"
        }
      ],
      "stateMutability": "view",
      "type": "function"
    },
    {
      "inputs": [
        {
          "internalType": "uint256",
          "name": "_shares",
          "type": "uint256"
        }
      ],
      "name": "getLiquidityAmounts",
      "outputs": [
        {
          "internalType": "uint256",
          "name": "amountA",
          "type": "uint256"
        },
        {
          "internalType": "uint256",
          "name": "amountB",
          "type": "uint256"
        }
      ],
      "stateMutability": "view",
      "type": "function"
    },
    {
      "inputs": [
        {
          "internalType": "address",
          "name": "_tokenIn",
          "type": "address"
        },
        {
          "internalType": "uint256",
          "name": "_amountIn",
          "type": "uint256"
        }
      ],
      "name": "getRequiredLiquidityAmount",
      "outputs": [
        {
          "internalType": "uint256",
          "name": "requiredAmount",
          "type": "uint256"
        }
      ],
      "stateMutability": "view",
      "type": "function"
    },
    {
      "inputs": [],
      "name": "owner",
      "outputs": [
        {
          "internalType": "address",
          "name": "",
          "type": "address"
        }
      ],
      "stateMutability": "view",
      "type": "function"
    },
    {
      "inputs": [
        {
          "internalType": "uint256",
          "name": "_shares",
          "type": "uint256"
        }
      ],
      "name": "removeLiquidity",
      "outputs": [
        {
          "internalType": "uint256",
          "name": "amountA",
          "type": "uint256"
        },
        {
          "internalType": "uint256",
          "name": "amountB",
          "type": "uint256"
        }
      ],
      "stateMutability": "nonpayable",
      "type": "function"
    },
    {
      "inputs": [],
      "name": "reserveA",
      "outputs": [
        {
          "internalType": "uint256",
          "name": "",
          "type": "uint256"
        }
      ],
      "stateMutability": "view",
      "type": "function"
    },
    {
      "inputs": [],
      "name": "reserveB",
      "outputs": [
        {
          "internalType": "uint256",
          "name": "",
          "type": "uint256"
        }
      ],
      "stateMutability": "view",
      "type": "function"
    },
    {
      "inputs": [
        {
          "internalType": "address",
          "name": "_tokenReceived",
          "type": "address"
        },
        {
          "internalType": "uint256",
          "name": "_amountReceived",
          "type": "uint256"
        }
      ],
      "name": "swap",
      "outputs": [
        {
          "internalType": "uint256",
          "name": "_amountReturned",
          "type": "uint256"
        }
      ],
      "stateMutability": "nonpayable",
      "type": "function"
    },
    {
      "inputs": [],
      "name": "tokenA",
      "outputs": [
        {
          "internalType": "contract IERC20",
          "name": "",
          "type": "address"
        }
      ],
      "stateMutability": "view",
      "type": "function"
    },
    {
      "inputs": [],
      "name": "tokenB",
      "outputs": [
        {
          "internalType": "contract IERC20",
          "name": "",
          "type": "address"
        }
      ],
      "stateMutability": "view",
      "type": "function"
    },
    {
      "inputs": [],
      "name": "totalSupply",
      "outputs": [
        {
          "internalType": "uint256",
          "name": "",
          "type": "uint256"
        }
      ],
      "stateMutability": "view",
      "type": "function"
    }
  ],
  "bytecode": "0x60e060405234801561001057600080fd5b5060405161161b38038061161b83398101604081905261002f91610066565b3360c0526001600160a01b039182166080521660a052610099565b80516001600160a01b038116811461006157600080fd5b919050565b6000806040838503121561007957600080fd5b6100828361004a565b91506100906020840161004a565b90509250929050565b60805160a05160c0516114b3610168600039600081816101970152610f4c01526000818161013d01528181610326015281816104ac0152818161067c015281816107eb015281816109e301528181610b2501528181610be901528181610cf301528181610d61015261117a01526000818160d9015281816102820152818161041e015281816105ea015281816107530152818161095a01528181610adf01528181610bae01528181610cb101528181610d1401528181610d400152818161103f01526110ec01526114b36000f3fe608060405234801561001057600080fd5b50600436106100cf5760003560e01c80638da5cb5b1161008c578063ca706bcf11610066578063ca706bcf146101f4578063d004f0f714610207578063dc5fa6c51461021a578063f049eb4c1461022357600080fd5b80638da5cb5b146101925780639c8f9f23146101b95780639cd441da146101e157600080fd5b80630fc63d10146100d457806318160ddd1461011857806319e36f3b1461012f5780635f64b55b146101385780636a5201241461015f57806370a0823114610172575b600080fd5b6100fb7f000000000000000000000000000000000000000000000000000000000000000081565b6040516001600160a01b0390911681526020015b60405180910390f35b61012160025481565b60405190815260200161010f565b61012160015481565b6100fb7f000000000000000000000000000000000000000000000000000000000000000081565b61012161016d36600461134d565b610236565b610121610180366004611377565b60036020526000908152604090205481565b6100fb7f000000000000000000000000000000000000000000000000000000000000000081565b6101cc6101c7366004611392565b6103fa565b6040805192835260208301919091520161010f565b6101216101ef3660046113ab565b61072e565b61012161020236600461134d565b610a91565b61012161021536600461134d565b610baa565b61012160005481565b6101cc610231366004611392565b6110c8565b60008082116102805760405162461bcd60e51b81526020600482015260116024820152700496e707574206d757374206265203e203607c1b60448201526064015b60405180910390fd5b7f00000000000000000000000000000000000000000000000000000000000000006001600160a01b0316836001600160a01b0316036103245760008054116103035760405162461bcd60e51b81526020600482015260166024820152754e6f206c697175696469747920617661696c61626c6560501b6044820152606401610277565b60005460015461031390846113e3565b61031d91906113fa565b90506103f4565b7f00000000000000000000000000000000000000000000000000000000000000006001600160a01b0316836001600160a01b0316036103b8576000600154116103a85760405162461bcd60e51b81526020600482015260166024820152754e6f206c697175696469747920617661696c61626c6560501b6044820152606401610277565b60015460005461031390846113e3565b60405162461bcd60e51b81526020600482015260116024820152702a37b5b2b7103737ba1034b7103830b4b960791b6044820152606401610277565b92915050565b6040516370a0823160e01b8152306004820152600090819081906001600160a01b037f000000000000000000000000000000000000000000000000000000000000000016906370a0823190602401602060405180830381865afa158015610465573d6000803e3d6000fd5b505050506040513d601f19601f82011682018060405250810190610489919061141c565b6040516370a0823160e01b81523060048201529091506000906001600160a01b037f000000000000000000000000000000000000000000000000000000000000000016906370a0823190602401602060405180830381865afa1580156104f3573d6000803e3d6000fd5b505050506040513d601f19601f82011682018060405250810190610517919061141c565b60025490915061052783876113e3565b61053191906113fa565b60025490945061054182876113e3565b61054b91906113fa565b925060008411801561055d5750600083115b6105a25760405162461bcd60e51b81526020600482015260166024820152750616d6f756e7441206f7220616d6f756e7442203d20360541b6044820152606401610277565b6105ac3386611222565b6105ce6105b98584611435565b6105c38584611435565b600091909155600155565b60405163a9059cbb60e01b8152336004820152602481018590527f00000000000000000000000000000000000000000000000000000000000000006001600160a01b03169063a9059cbb906044016020604051808303816000875af115801561063b573d6000803e3d6000fd5b505050506040513d601f19601f8201168201806040525081019061065f9190611448565b5060405163a9059cbb60e01b8152336004820152602481018490527f00000000000000000000000000000000000000000000000000000000000000006001600160a01b03169063a9059cbb906044016020604051808303816000875af11580156106cd573d6000803e3d6000fd5b505050506040513d601f19601f820116820180604052508101906106f19190611448565b5060405185815233907f882957247ac8c668ed6750dccfb1b01b6ca384eba7cf1d2939c3ad71843693489060200160405180910390a25050915091565b6040516323b872dd60e01b8152336004820152306024820152604481018390526000907f00000000000000000000000000000000000000000000000000000000000000006001600160a01b0316906323b872dd906064016020604051808303816000875af11580156107a4573d6000803e3d6000fd5b505050506040513d601f19601f820116820180604052508101906107c89190611448565b506040516323b872dd60e01b8152336004820152306024820152604481018390527f00000000000000000000000000000000000000000000000000000000000000006001600160a01b0316906323b872dd906064016020604051808303816000875af115801561083c573d6000803e3d6000fd5b505050506040513d601f19601f820116820180604052508101906108609190611448565b5060008054118061087357506000600154115b156108d4578260015461088691906113e3565b8260005461089491906113e3565b146108d45760405162461bcd60e51b815260206004820152601060248201526f0c8f2405e40c8f040427a40f2405e40f60831b6044820152606401610277565b6002546000036108f7576108f06108eb83856113e3565b61126c565b9050610937565b6109346000546002548561090b91906113e3565b61091591906113fa565b60015460025461092590866113e3565b61092f91906113fa565b6112dc565b90505b61094133826112f5565b6040516370a0823160e01b8152306004820152610a56907f00000000000000000000000000000000000000000000000000000000000000006001600160a01b0316906370a08231906024015b602060405180830381865afa1580156109aa573d6000803e3d6000fd5b505050506040513d601f19601f820116820180604052508101906109ce919061141c565b6040516370a0823160e01b81523060048201527f00000000000000000000000000000000000000000000000000000000000000006001600160a01b0316906370a0823190602401602060405180830381865afa158015610a32573d6000803e3d6000fd5b505050506040513d601f19601f820116820180604052508101906105c3919061141c565b60405181815233907fe7fe080b09a4b64ca6809c33d36a0b2c9076c373e7f9da7b5f19cef93fc87e509060200160405180910390a292915050565b6000808211610ada5760405162461bcd60e51b81526020600482015260156024820152740416d6f756e7420696e206d757374206265203e203605c1b6044820152606401610277565b6000807f00000000000000000000000000000000000000000000000000000000000000006001600160a01b0316856001600160a01b031603610b23575050600054600154610b65565b7f00000000000000000000000000000000000000000000000000000000000000006001600160a01b0316856001600160a01b0316036103b85750506001546000545b60006103e8610b76866103e56113e3565b610b8091906113fa565b9050610b8c818461146a565b610b9682846113e3565b610ba091906113fa565b9695505050505050565b60007f00000000000000000000000000000000000000000000000000000000000000006001600160a01b0316836001600160a01b03161480610c1d57507f00000000000000000000000000000000000000000000000000000000000000006001600160a01b0316836001600160a01b0316145b610c5d5760405162461bcd60e51b81526020600482015260116024820152702a37b5b2b7103737ba1034b7103830b4b960791b6044820152606401610277565b60008211610cad5760405162461bcd60e51b815260206004820152601d60248201527f416d6f756e74206d7573742062652067726561746572207468616e20300000006044820152606401610277565b60007f00000000000000000000000000000000000000000000000000000000000000006001600160a01b0316846001600160a01b031614905060008060008084610d3e577f00000000000000000000000000000000000000000000000000000000000000007f0000000000000000000000000000000000000000000000000000000000000000600154600054610d87565b7f00000000000000000000000000000000000000000000000000000000000000007f00000000000000000000000000000000000000000000000000000000000000006000546001545b6040516323b872dd60e01b8152336004820152306024820152604481018c9052939750919550935091506001600160a01b038516906323b872dd906064016020604051808303816000875af1158015610de4573d6000803e3d6000fd5b505050506040513d601f19601f82011682018060405250810190610e089190611448565b610e4a5760405162461bcd60e51b8152602060048201526013602482015272151c985b9cd9995c919c9bdb4819985a5b1959606a1b6044820152606401610277565b60006103e8610e5b896103e56113e3565b610e6591906113fa565b9050610e71818461146a565b610e7b82846113e3565b610e8591906113fa565b60405163a9059cbb60e01b8152336004820152602481018290529097506001600160a01b0385169063a9059cbb906044016020604051808303816000875af1158015610ed5573d6000803e3d6000fd5b505050506040513d601f19601f82011682018060405250810190610ef99190611448565b610f3b5760405162461bcd60e51b8152602060048201526013602482015272151c985b9cd9995c881bdd5d0819985a5b1959606a1b6044820152606401610277565b6001600160a01b03851663a9059cbb7f0000000000000000000000000000000000000000000000000000000000000000610f75848c611435565b6040516001600160e01b031960e085901b1681526001600160a01b03909216600483015260248201526044016020604051808303816000875af1158015610fc0573d6000803e3d6000fd5b505050506040513d601f19601f82011682018060405250810190610fe49190611448565b6110265760405162461bcd60e51b8152602060048201526013602482015272151c985b9cd9995c881999594819985a5b1959606a1b6044820152606401610277565b6040516370a0823160e01b8152306004820152611076907f00000000000000000000000000000000000000000000000000000000000000006001600160a01b0316906370a082319060240161098d565b60408051898152602081018990526001600160a01b0386169133917fa078c4190abe07940190effc1846be0ccf03ad6007bc9e93f9697d0b460befbb910160405180910390a350505050505092915050565b6040516370a0823160e01b8152306004820152600090819081906001600160a01b037f000000000000000000000000000000000000000000000000000000000000000016906370a0823190602401602060405180830381865afa158015611133573d6000803e3d6000fd5b505050506040513d601f19601f82011682018060405250810190611157919061141c565b6040516370a0823160e01b81523060048201529091506000906001600160a01b037f000000000000000000000000000000000000000000000000000000000000000016906370a0823190602401602060405180830381865afa1580156111c1573d6000803e3d6000fd5b505050506040513d601f19601f820116820180604052508101906111e5919061141c565b6002549091506111f583876113e3565b6111ff91906113fa565b60025490945061120f82876113e3565b61121991906113fa565b92505050915091565b6001600160a01b0382166000908152600360205260408120805483929061124a908490611435565b9250508190555080600260008282546112639190611435565b90915550505050565b600060038211156112cd57508060006112866002836113fa565b61129190600161146a565b90505b818110156112c7579050806002816112ac81866113fa565b6112b6919061146a565b6112c091906113fa565b9050611294565b50919050565b81156112d7575060015b919050565b6000818311156112ec57816112ee565b825b9392505050565b6001600160a01b0382166000908152600360205260408120805483929061131d90849061146a565b925050819055508060026000828254611263919061146a565b80356001600160a01b03811681146112d757600080fd5b6000806040838503121561136057600080fd5b61136983611336565b946020939093013593505050565b60006020828403121561138957600080fd5b6112ee82611336565b6000602082840312156113a457600080fd5b5035919050565b600080604083850312156113be57600080fd5b50508035926020909101359150565b634e487b7160e01b600052601160045260246000fd5b80820281158282048414176103f4576103f46113cd565b60008261141757634e487b7160e01b600052601260045260246000fd5b500490565b60006020828403121561142e57600080fd5b5051919050565b818103818111156103f4576103f46113cd565b60006020828403121561145a57600080fd5b815180151581146112ee57600080fd5b808201808211156103f4576103f46113cd56fea2646970667358221220415d2eef3035509f67d195f2c9e7f4754e43bd7988ce3c7955c01da55ef6d76864736f6c63430008180033",
  "linkReferences": {},
  "deployedLinkReferences": {}
}