{
  "_format": "hh-sol-artifact-1",
  "contractName": "ConstantSum",
  "sourceName": "contracts/finance/ConstantSum.sol",
  "abi": [
    {
      "inputs": [
        {
          "internalType": "contract IERC20",
          "name": "_tokenA",
          "type": "address"
        },
        {
          "internalType": "contract IERC20",
          "name": "_tokenB",
          "type": "address"
        }
      ],
      "stateMutability": "nonpayable",
      "type": "constructor"
    },
    {
      "anonymous": false,
      "inputs": [
        {
          "indexed": true,
          "internalType": "address",
          "name": "to",
          "type": "address"
        },
        {
          "indexed": false,
          "internalType": "uint256",
          "name": "amount",
          "type": "uint256"
        }
      ],
      "name": "AddedLiquidity",
      "type": "event"
    },
    {
      "anonymous": false,
      "inputs": [
        {
          "indexed": true,
          "internalType": "address",
          "name": "from",
          "type": "address"
        },
        {
          "indexed": false,
          "internalType": "uint256",
          "name": "amount",
          "type": "uint256"
        }
      ],
      "name": "RemovedLiquidity",
      "type": "event"
    },
    {
      "anonymous": false,
      "inputs": [
        {
          "indexed": true,
          "internalType": "address",
          "name": "from",
          "type": "address"
        },
        {
          "indexed": true,
          "internalType": "address",
          "name": "to",
          "type": "address"
        },
        {
          "indexed": false,
          "internalType": "uint256",
          "name": "amountReceived",
          "type": "uint256"
        },
        {
          "indexed": false,
          "internalType": "uint256",
          "name": "amountReturned",
          "type": "uint256"
        }
      ],
      "name": "Swapped",
      "type": "event"
    },
    {
      "inputs": [
        {
          "internalType": "uint256",
          "name": "_amountA",
          "type": "uint256"
        },
        {
          "internalType": "uint256",
          "name": "_amountB",
          "type": "uint256"
        }
      ],
      "name": "addLiquidity",
      "outputs": [
        {
          "internalType": "uint256",
          "name": "_shares",
          "type": "uint256"
        }
      ],
      "stateMutability": "nonpayable",
      "type": "function"
    },
    {
      "inputs": [
        {
          "internalType": "address",
          "name": "",
          "type": "address"
        }
      ],
      "name": "balanceOf",
      "outputs": [
        {
          "internalType": "uint256",
          "name": "",
          "type": "uint256"
        }
      ],
      "stateMutability": "view",
      "type": "function"
    },
    {
      "inputs": [],
      "name": "owner",
      "outputs": [
        {
          "internalType": "address",
          "name": "",
          "type": "address"
        }
      ],
      "stateMutability": "view",
      "type": "function"
    },
    {
      "inputs": [
        {
          "internalType": "uint256",
          "name": "_shares",
          "type": "uint256"
        }
      ],
      "name": "removeLiquidity",
      "outputs": [
        {
          "internalType": "uint256",
          "name": "_amountA",
          "type": "uint256"
        },
        {
          "internalType": "uint256",
          "name": "_amountB",
          "type": "uint256"
        }
      ],
      "stateMutability": "nonpayable",
      "type": "function"
    },
    {
      "inputs": [],
      "name": "reserveA",
      "outputs": [
        {
          "internalType": "uint256",
          "name": "",
          "type": "uint256"
        }
      ],
      "stateMutability": "view",
      "type": "function"
    },
    {
      "inputs": [],
      "name": "reserveB",
      "outputs": [
        {
          "internalType": "uint256",
          "name": "",
          "type": "uint256"
        }
      ],
      "stateMutability": "view",
      "type": "function"
    },
    {
      "inputs": [
        {
          "internalType": "address",
          "name": "_tokenReceived",
          "type": "address"
        },
        {
          "internalType": "uint256",
          "name": "_amountReceived",
          "type": "uint256"
        }
      ],
      "name": "swap",
      "outputs": [
        {
          "internalType": "uint256",
          "name": "_amountReturned",
          "type": "uint256"
        }
      ],
      "stateMutability": "nonpayable",
      "type": "function"
    },
    {
      "inputs": [],
      "name": "tokenA",
      "outputs": [
        {
          "internalType": "contract IERC20",
          "name": "",
          "type": "address"
        }
      ],
      "stateMutability": "view",
      "type": "function"
    },
    {
      "inputs": [],
      "name": "tokenB",
      "outputs": [
        {
          "internalType": "contract IERC20",
          "name": "",
          "type": "address"
        }
      ],
      "stateMutability": "view",
      "type": "function"
    },
    {
      "inputs": [],
      "name": "totalSupply",
      "outputs": [
        {
          "internalType": "uint256",
          "name": "",
          "type": "uint256"
        }
      ],
      "stateMutability": "view",
      "type": "function"
    }
  ],
  "bytecode": "0x60e060405234801561001057600080fd5b5060405161155938038061155983398101604081905261002f91610066565b3360c0526001600160a01b039182166080521660a052610099565b80516001600160a01b038116811461006157600080fd5b919050565b6000806040838503121561007957600080fd5b6100828361004a565b91506100906020840161004a565b90509250929050565b60805160a05160c0516113e36101766000396000818161015301528181610e100152610f9001526000818161010c015281816102d2015281816104a901528181610663015281816108b10152818161099e01528181610be401528181610c7901528181610d6901528181610f6901526110a901526000818160a80152818161023c01528181610417015281816105cf015281816108290152818161096301528181610a6601528181610ab401528181610b4901528181610d1601528181610de901528181610ee90152818161104a015261108301526113e36000f3fe608060405234801561001057600080fd5b506004361061009e5760003560e01c80638da5cb5b116100665780638da5cb5b1461014e5780639c8f9f23146101755780639cd441da1461019d578063d004f0f7146101b0578063dc5fa6c5146101c357600080fd5b80630fc63d10146100a357806318160ddd146100e757806319e36f3b146100fe5780635f64b55b1461010757806370a082311461012e575b600080fd5b6100ca7f000000000000000000000000000000000000000000000000000000000000000081565b6040516001600160a01b0390911681526020015b60405180910390f35b6100f060025481565b6040519081526020016100de565b6100f060015481565b6100ca7f000000000000000000000000000000000000000000000000000000000000000081565b6100f061013c366004611252565b60036020526000908152604090205481565b6100ca7f000000000000000000000000000000000000000000000000000000000000000081565b61018861018336600461126d565b6101cc565b604080519283526020830191909152016100de565b6100f06101ab366004611286565b61055b565b6100f06101be3660046112a8565b61095f565b6100f060005481565b600080600083116102245760405162461bcd60e51b815260206004820152601d60248201527f536861726573206d7573742062652067726561746572207468616e203000000060448201526064015b60405180910390fd5b6040516370a0823160e01b81523060048201526000907f00000000000000000000000000000000000000000000000000000000000000006001600160a01b0316906370a0823190602401602060405180830381865afa15801561028b573d6000803e3d6000fd5b505050506040513d601f19601f820116820180604052508101906102af91906112d2565b6040516370a0823160e01b81523060048201529091506000906001600160a01b037f000000000000000000000000000000000000000000000000000000000000000016906370a0823190602401602060405180830381865afa158015610319573d6000803e3d6000fd5b505050506040513d601f19601f8201168201806040525081019061033d91906112d2565b60025490915061034d8387611301565b6103579190611318565b6002549094506103678287611301565b6103719190611318565b92506000841180156103835750600083115b6103cf5760405162461bcd60e51b815260206004820152601860248201527f5f616d6f756e7441206f72205f616d6f756e7442203d20300000000000000000604482015260640161021b565b6103d93386611125565b6103fb6103e6858461133a565b6103f0858461133a565b600091909155600155565b60405163a9059cbb60e01b8152336004820152602481018590527f00000000000000000000000000000000000000000000000000000000000000006001600160a01b03169063a9059cbb906044016020604051808303816000875af1158015610468573d6000803e3d6000fd5b505050506040513d601f19601f8201168201806040525081019061048c919061134d565b5060405163a9059cbb60e01b8152336004820152602481018490527f00000000000000000000000000000000000000000000000000000000000000006001600160a01b03169063a9059cbb906044016020604051808303816000875af11580156104fa573d6000803e3d6000fd5b505050506040513d601f19601f8201168201806040525081019061051e919061134d565b5060405185815233907f882957247ac8c668ed6750dccfb1b01b6ca384eba7cf1d2939c3ad71843693489060200160405180910390a25050915091565b6000808311801561056c5750600082115b6105b85760405162461bcd60e51b815260206004820152601d60248201527f416d6f756e74206d7573742062652067726561746572207468616e2030000000604482015260640161021b565b6040516323b872dd60e01b81526001600160a01b037f000000000000000000000000000000000000000000000000000000000000000016906323b872dd9061060890339030908890600401611376565b6020604051808303816000875af1158015610627573d6000803e3d6000fd5b505050506040513d601f19601f8201168201806040525081019061064b919061134d565b506040516323b872dd60e01b81526001600160a01b037f000000000000000000000000000000000000000000000000000000000000000016906323b872dd9061069c90339030908790600401611376565b6020604051808303816000875af11580156106bb573d6000803e3d6000fd5b505050506040513d601f19601f820116820180604052508101906106df919061134d565b506000805411806106f257506000600154115b1561075357826001546107059190611301565b826000546107139190611301565b146107535760405162461bcd60e51b815260206004820152601060248201526f6478202f20647920213d2078202f207960801b604482015260640161021b565b6002546000036107765761076f61076a8385611301565b61116f565b90506107b6565b6107b36000546002548561078a9190611301565b6107949190611318565b6001546002546107a49086611301565b6107ae9190611318565b6111df565b90505b600081116108065760405162461bcd60e51b815260206004820152601d60248201527f536861726573206d7573742062652067726561746572207468616e2030000000604482015260640161021b565b61081033826111fa565b6040516370a0823160e01b8152306004820152610924907f00000000000000000000000000000000000000000000000000000000000000006001600160a01b0316906370a0823190602401602060405180830381865afa158015610878573d6000803e3d6000fd5b505050506040513d601f19601f8201168201806040525081019061089c91906112d2565b6040516370a0823160e01b81523060048201527f00000000000000000000000000000000000000000000000000000000000000006001600160a01b0316906370a0823190602401602060405180830381865afa158015610900573d6000803e3d6000fd5b505050506040513d601f19601f820116820180604052508101906103f091906112d2565b60405181815233907fe7fe080b09a4b64ca6809c33d36a0b2c9076c373e7f9da7b5f19cef93fc87e509060200160405180910390a292915050565b60007f00000000000000000000000000000000000000000000000000000000000000006001600160a01b0316836001600160a01b031614806109d257507f00000000000000000000000000000000000000000000000000000000000000006001600160a01b0316836001600160a01b0316145b610a125760405162461bcd60e51b81526020600482015260116024820152702a37b5b2b7103737ba1034b7103830b4b960791b604482015260640161021b565b60008211610a625760405162461bcd60e51b815260206004820152601d60248201527f416d6f756e74206d7573742062652067726561746572207468616e2030000000604482015260640161021b565b60007f00000000000000000000000000000000000000000000000000000000000000006001600160a01b0316846001600160a01b031603610bcd576040516323b872dd60e01b81526001600160a01b037f000000000000000000000000000000000000000000000000000000000000000016906323b872dd90610aed90339030908890600401611376565b6020604051808303816000875af1158015610b0c573d6000803e3d6000fd5b505050506040513d601f19601f82011682018060405250810190610b30919061134d565b506000546040516370a0823160e01b81523060048201527f00000000000000000000000000000000000000000000000000000000000000006001600160a01b0316906370a0823190602401602060405180830381865afa158015610b98573d6000803e3d6000fd5b505050506040513d601f19601f82011682018060405250810190610bbc91906112d2565b610bc6919061133a565b9050610cf9565b6040516323b872dd60e01b81526001600160a01b037f000000000000000000000000000000000000000000000000000000000000000016906323b872dd90610c1d90339030908890600401611376565b6020604051808303816000875af1158015610c3c573d6000803e3d6000fd5b505050506040513d601f19601f82011682018060405250810190610c60919061134d565b506001546040516370a0823160e01b81523060048201527f00000000000000000000000000000000000000000000000000000000000000006001600160a01b0316906370a0823190602401602060405180830381865afa158015610cc8573d6000803e3d6000fd5b505050506040513d601f19601f82011682018060405250810190610cec91906112d2565b610cf6919061133a565b90505b6103e8610d08826103e5611301565b610d129190611318565b91507f00000000000000000000000000000000000000000000000000000000000000006001600160a01b0316846001600160a01b031603610ecd5760405163a9059cbb60e01b8152336004820152602481018390527f00000000000000000000000000000000000000000000000000000000000000006001600160a01b03169063a9059cbb906044016020604051808303816000875af1158015610dba573d6000803e3d6000fd5b505050506040513d601f19601f82011682018060405250810190610dde919061134d565b506001600160a01b037f00000000000000000000000000000000000000000000000000000000000000001663a9059cbb7f0000000000000000000000000000000000000000000000000000000000000000610e39858761133a565b6040516001600160e01b031960e085901b1681526001600160a01b03909216600483015260248201526044016020604051808303816000875af1158015610e84573d6000803e3d6000fd5b505050506040513d601f19601f82011682018060405250810190610ea8919061134d565b50610ec881600054610eba919061139a565b836001546103f0919061133a565b611048565b60405163a9059cbb60e01b8152336004820152602481018390527f00000000000000000000000000000000000000000000000000000000000000006001600160a01b03169063a9059cbb906044016020604051808303816000875af1158015610f3a573d6000803e3d6000fd5b505050506040513d601f19601f82011682018060405250810190610f5e919061134d565b506001600160a01b037f00000000000000000000000000000000000000000000000000000000000000001663a9059cbb7f0000000000000000000000000000000000000000000000000000000000000000610fb9858761133a565b6040516001600160e01b031960e085901b1681526001600160a01b03909216600483015260248201526044016020604051808303816000875af1158015611004573d6000803e3d6000fd5b505050506040513d601f19601f82011682018060405250810190611028919061134d565b506110488260005461103a919061133a565b826001546103f0919061139a565b7f00000000000000000000000000000000000000000000000000000000000000006001600160a01b0316846001600160a01b0316146110a7577f00000000000000000000000000000000000000000000000000000000000000006110c9565b7f00000000000000000000000000000000000000000000000000000000000000005b6001600160a01b0316846001600160a01b03167fa078c4190abe07940190effc1846be0ccf03ad6007bc9e93f9697d0b460befbb8385604051611116929190918252602082015260400190565b60405180910390a35092915050565b6001600160a01b0382166000908152600360205260408120805483929061114d90849061133a565b925050819055508060026000828254611166919061133a565b90915550505050565b600060038211156111d05750806000611189600283611318565b61119490600161139a565b90505b818110156111ca579050806002816111af8186611318565b6111b9919061139a565b6111c39190611318565b9050611197565b50919050565b81156111da575060015b919050565b6000818311156111ef57816111f1565b825b90505b92915050565b6001600160a01b0382166000908152600360205260408120805483929061122290849061139a565b925050819055508060026000828254611166919061139a565b80356001600160a01b03811681146111da57600080fd5b60006020828403121561126457600080fd5b6111f18261123b565b60006020828403121561127f57600080fd5b5035919050565b6000806040838503121561129957600080fd5b50508035926020909101359150565b600080604083850312156112bb57600080fd5b6112c48361123b565b946020939093013593505050565b6000602082840312156112e457600080fd5b5051919050565b634e487b7160e01b600052601160045260246000fd5b80820281158282048414176111f4576111f46112eb565b60008261133557634e487b7160e01b600052601260045260246000fd5b500490565b818103818111156111f4576111f46112eb565b60006020828403121561135f57600080fd5b8151801515811461136f57600080fd5b9392505050565b6001600160a01b039384168152919092166020820152604081019190915260600190565b808201808211156111f4576111f46112eb56fea2646970667358221220a7e9278f5e3a0fb25c0b223a9062433655ff90813369d954e70ae2a52066d39464736f6c63430008180033",
  "linkReferences": {},
  "deployedLinkReferences": {}
}