{
  "_format": "hh-sol-artifact-1",
  "contractName": "ConstantProduct",
  "sourceName": "contracts/finance/ConstantProduct.sol",
  "abi": [
    {
      "inputs": [
        {
          "internalType": "contract IERC20",
          "name": "_tokenA",
          "type": "address"
        },
        {
          "internalType": "contract IERC20",
          "name": "_tokenB",
          "type": "address"
        }
      ],
      "stateMutability": "nonpayable",
      "type": "constructor"
    },
    {
      "anonymous": false,
      "inputs": [
        {
          "indexed": true,
          "internalType": "address",
          "name": "to",
          "type": "address"
        },
        {
          "indexed": false,
          "internalType": "uint256",
          "name": "shares",
          "type": "uint256"
        }
      ],
      "name": "AddedLiquidity",
      "type": "event"
    },
    {
      "anonymous": false,
      "inputs": [
        {
          "indexed": true,
          "internalType": "address",
          "name": "from",
          "type": "address"
        },
        {
          "indexed": false,
          "internalType": "uint256",
          "name": "shares",
          "type": "uint256"
        }
      ],
      "name": "RemovedLiquidity",
      "type": "event"
    },
    {
      "anonymous": false,
      "inputs": [
        {
          "indexed": true,
          "internalType": "address",
          "name": "from",
          "type": "address"
        },
        {
          "indexed": true,
          "internalType": "address",
          "name": "to",
          "type": "address"
        },
        {
          "indexed": false,
          "internalType": "uint256",
          "name": "amountReceived",
          "type": "uint256"
        },
        {
          "indexed": false,
          "internalType": "uint256",
          "name": "amountReturned",
          "type": "uint256"
        }
      ],
      "name": "Swapped",
      "type": "event"
    },
    {
      "inputs": [
        {
          "internalType": "uint256",
          "name": "_amountA",
          "type": "uint256"
        },
        {
          "internalType": "uint256",
          "name": "_amountB",
          "type": "uint256"
        }
      ],
      "name": "addLiquidity",
      "outputs": [
        {
          "internalType": "uint256",
          "name": "_shares",
          "type": "uint256"
        }
      ],
      "stateMutability": "nonpayable",
      "type": "function"
    },
    {
      "inputs": [
        {
          "internalType": "address",
          "name": "",
          "type": "address"
        }
      ],
      "name": "balanceOf",
      "outputs": [
        {
          "internalType": "uint256",
          "name": "",
          "type": "uint256"
        }
      ],
      "stateMutability": "view",
      "type": "function"
    },
    {
      "inputs": [],
      "name": "owner",
      "outputs": [
        {
          "internalType": "address",
          "name": "",
          "type": "address"
        }
      ],
      "stateMutability": "view",
      "type": "function"
    },
    {
      "inputs": [
        {
          "internalType": "uint256",
          "name": "_shares",
          "type": "uint256"
        }
      ],
      "name": "removeLiquidity",
      "outputs": [
        {
          "internalType": "uint256",
          "name": "amountA",
          "type": "uint256"
        },
        {
          "internalType": "uint256",
          "name": "amountB",
          "type": "uint256"
        }
      ],
      "stateMutability": "nonpayable",
      "type": "function"
    },
    {
      "inputs": [],
      "name": "reserveA",
      "outputs": [
        {
          "internalType": "uint256",
          "name": "",
          "type": "uint256"
        }
      ],
      "stateMutability": "view",
      "type": "function"
    },
    {
      "inputs": [],
      "name": "reserveB",
      "outputs": [
        {
          "internalType": "uint256",
          "name": "",
          "type": "uint256"
        }
      ],
      "stateMutability": "view",
      "type": "function"
    },
    {
      "inputs": [
        {
          "internalType": "address",
          "name": "_tokenReceived",
          "type": "address"
        },
        {
          "internalType": "uint256",
          "name": "_amountReceived",
          "type": "uint256"
        }
      ],
      "name": "swap",
      "outputs": [
        {
          "internalType": "uint256",
          "name": "_amountReturned",
          "type": "uint256"
        }
      ],
      "stateMutability": "nonpayable",
      "type": "function"
    },
    {
      "inputs": [],
      "name": "tokenA",
      "outputs": [
        {
          "internalType": "contract IERC20",
          "name": "",
          "type": "address"
        }
      ],
      "stateMutability": "view",
      "type": "function"
    },
    {
      "inputs": [],
      "name": "tokenB",
      "outputs": [
        {
          "internalType": "contract IERC20",
          "name": "",
          "type": "address"
        }
      ],
      "stateMutability": "view",
      "type": "function"
    },
    {
      "inputs": [],
      "name": "totalSupply",
      "outputs": [
        {
          "internalType": "uint256",
          "name": "",
          "type": "uint256"
        }
      ],
      "stateMutability": "view",
      "type": "function"
    }
  ],
  "bytecode": "0x60e060405234801561001057600080fd5b5060405161115e38038061115e83398101604081905261002f91610066565b3360c0526001600160a01b039182166080521660a052610099565b80516001600160a01b038116811461006157600080fd5b919050565b6000806040838503121561007957600080fd5b6100828361004a565b91506100906020840161004a565b90509250929050565b60805160a05160c05161102061013e600039600081816101530152610c0a01526000818161010c0152818161027e01528181610453015281816105c2015281816107ba015281816108a7015281816109b10152610a1f01526000818160a8015281816101f0015281816103c10152818161052a015281816107310152818161086c0152818161096f015281816109d2015281816109fe0152610cfd01526110206000f3fe608060405234801561001057600080fd5b506004361061009e5760003560e01c80638da5cb5b116100665780638da5cb5b1461014e5780639c8f9f23146101755780639cd441da1461019d578063d004f0f7146101b0578063dc5fa6c5146101c357600080fd5b80630fc63d10146100a357806318160ddd146100e757806319e36f3b146100fe5780635f64b55b1461010757806370a082311461012e575b600080fd5b6100ca7f000000000000000000000000000000000000000000000000000000000000000081565b6040516001600160a01b0390911681526020015b60405180910390f35b6100f060025481565b6040519081526020016100de565b6100f060015481565b6100ca7f000000000000000000000000000000000000000000000000000000000000000081565b6100f061013c366004610eb3565b60036020526000908152604090205481565b6100ca7f000000000000000000000000000000000000000000000000000000000000000081565b610188610183366004610ece565b6101cc565b604080519283526020830191909152016100de565b6100f06101ab366004610ee7565b610505565b6100f06101be366004610f09565b610868565b6100f060005481565b6040516370a0823160e01b8152306004820152600090819081906001600160a01b037f000000000000000000000000000000000000000000000000000000000000000016906370a0823190602401602060405180830381865afa158015610237573d6000803e3d6000fd5b505050506040513d601f19601f8201168201806040525081019061025b9190610f33565b6040516370a0823160e01b81523060048201529091506000906001600160a01b037f000000000000000000000000000000000000000000000000000000000000000016906370a0823190602401602060405180830381865afa1580156102c5573d6000803e3d6000fd5b505050506040513d601f19601f820116820180604052508101906102e99190610f33565b6002549091506102f98387610f62565b6103039190610f79565b6002549094506103138287610f62565b61031d9190610f79565b925060008411801561032f5750600083115b6103795760405162461bcd60e51b81526020600482015260166024820152750616d6f756e7441206f7220616d6f756e7442203d20360541b60448201526064015b60405180910390fd5b6103833386610d86565b6103a56103908584610f9b565b61039a8584610f9b565b600091909155600155565b60405163a9059cbb60e01b8152336004820152602481018590527f00000000000000000000000000000000000000000000000000000000000000006001600160a01b03169063a9059cbb906044016020604051808303816000875af1158015610412573d6000803e3d6000fd5b505050506040513d601f19601f820116820180604052508101906104369190610fae565b5060405163a9059cbb60e01b8152336004820152602481018490527f00000000000000000000000000000000000000000000000000000000000000006001600160a01b03169063a9059cbb906044016020604051808303816000875af11580156104a4573d6000803e3d6000fd5b505050506040513d601f19601f820116820180604052508101906104c89190610fae565b5060405185815233907f882957247ac8c668ed6750dccfb1b01b6ca384eba7cf1d2939c3ad71843693489060200160405180910390a25050915091565b6040516323b872dd60e01b8152336004820152306024820152604481018390526000907f00000000000000000000000000000000000000000000000000000000000000006001600160a01b0316906323b872dd906064016020604051808303816000875af115801561057b573d6000803e3d6000fd5b505050506040513d601f19601f8201168201806040525081019061059f9190610fae565b506040516323b872dd60e01b8152336004820152306024820152604481018390527f00000000000000000000000000000000000000000000000000000000000000006001600160a01b0316906323b872dd906064016020604051808303816000875af1158015610613573d6000803e3d6000fd5b505050506040513d601f19601f820116820180604052508101906106379190610fae565b5060008054118061064a57506000600154115b156106ab578260015461065d9190610f62565b8260005461066b9190610f62565b146106ab5760405162461bcd60e51b815260206004820152601060248201526f0c8f2405e40c8f040427a40f2405e40f60831b6044820152606401610370565b6002546000036106ce576106c76106c28385610f62565b610dd0565b905061070e565b61070b600054600254856106e29190610f62565b6106ec9190610f79565b6001546002546106fc9086610f62565b6107069190610f79565b610e40565b90505b6107183382610e5b565b6040516370a0823160e01b815230600482015261082d907f00000000000000000000000000000000000000000000000000000000000000006001600160a01b0316906370a08231906024015b602060405180830381865afa158015610781573d6000803e3d6000fd5b505050506040513d601f19601f820116820180604052508101906107a59190610f33565b6040516370a0823160e01b81523060048201527f00000000000000000000000000000000000000000000000000000000000000006001600160a01b0316906370a0823190602401602060405180830381865afa158015610809573d6000803e3d6000fd5b505050506040513d601f19601f8201168201806040525081019061039a9190610f33565b60405181815233907fe7fe080b09a4b64ca6809c33d36a0b2c9076c373e7f9da7b5f19cef93fc87e509060200160405180910390a292915050565b60007f00000000000000000000000000000000000000000000000000000000000000006001600160a01b0316836001600160a01b031614806108db57507f00000000000000000000000000000000000000000000000000000000000000006001600160a01b0316836001600160a01b0316145b61091b5760405162461bcd60e51b81526020600482015260116024820152702a37b5b2b7103737ba1034b7103830b4b960791b6044820152606401610370565b6000821161096b5760405162461bcd60e51b815260206004820152601d60248201527f416d6f756e74206d7573742062652067726561746572207468616e20300000006044820152606401610370565b60007f00000000000000000000000000000000000000000000000000000000000000006001600160a01b0316846001600160a01b0316149050600080600080846109fc577f00000000000000000000000000000000000000000000000000000000000000007f0000000000000000000000000000000000000000000000000000000000000000600154600054610a45565b7f00000000000000000000000000000000000000000000000000000000000000007f00000000000000000000000000000000000000000000000000000000000000006000546001545b6040516323b872dd60e01b8152336004820152306024820152604481018c9052939750919550935091506001600160a01b038516906323b872dd906064016020604051808303816000875af1158015610aa2573d6000803e3d6000fd5b505050506040513d601f19601f82011682018060405250810190610ac69190610fae565b610b085760405162461bcd60e51b8152602060048201526013602482015272151c985b9cd9995c919c9bdb4819985a5b1959606a1b6044820152606401610370565b60006103e8610b19896103e5610f62565b610b239190610f79565b9050610b2f8184610fd7565b610b398284610f62565b610b439190610f79565b60405163a9059cbb60e01b8152336004820152602481018290529097506001600160a01b0385169063a9059cbb906044016020604051808303816000875af1158015610b93573d6000803e3d6000fd5b505050506040513d601f19601f82011682018060405250810190610bb79190610fae565b610bf95760405162461bcd60e51b8152602060048201526013602482015272151c985b9cd9995c881bdd5d0819985a5b1959606a1b6044820152606401610370565b6001600160a01b03851663a9059cbb7f0000000000000000000000000000000000000000000000000000000000000000610c33848c610f9b565b6040516001600160e01b031960e085901b1681526001600160a01b03909216600483015260248201526044016020604051808303816000875af1158015610c7e573d6000803e3d6000fd5b505050506040513d601f19601f82011682018060405250810190610ca29190610fae565b610ce45760405162461bcd60e51b8152602060048201526013602482015272151c985b9cd9995c881999594819985a5b1959606a1b6044820152606401610370565b6040516370a0823160e01b8152306004820152610d34907f00000000000000000000000000000000000000000000000000000000000000006001600160a01b0316906370a0823190602401610764565b60408051898152602081018990526001600160a01b0386169133917fa078c4190abe07940190effc1846be0ccf03ad6007bc9e93f9697d0b460befbb910160405180910390a350505050505092915050565b6001600160a01b03821660009081526003602052604081208054839290610dae908490610f9b565b925050819055508060026000828254610dc79190610f9b565b90915550505050565b60006003821115610e315750806000610dea600283610f79565b610df5906001610fd7565b90505b81811015610e2b57905080600281610e108186610f79565b610e1a9190610fd7565b610e249190610f79565b9050610df8565b50919050565b8115610e3b575060015b919050565b600081831115610e505781610e52565b825b90505b92915050565b6001600160a01b03821660009081526003602052604081208054839290610e83908490610fd7565b925050819055508060026000828254610dc79190610fd7565b80356001600160a01b0381168114610e3b57600080fd5b600060208284031215610ec557600080fd5b610e5282610e9c565b600060208284031215610ee057600080fd5b5035919050565b60008060408385031215610efa57600080fd5b50508035926020909101359150565b60008060408385031215610f1c57600080fd5b610f2583610e9c565b946020939093013593505050565b600060208284031215610f4557600080fd5b5051919050565b634e487b7160e01b600052601160045260246000fd5b8082028115828204841417610e5557610e55610f4c565b600082610f9657634e487b7160e01b600052601260045260246000fd5b500490565b81810381811115610e5557610e55610f4c565b600060208284031215610fc057600080fd5b81518015158114610fd057600080fd5b9392505050565b80820180821115610e5557610e55610f4c56fea2646970667358221220887015771152dbfc6e1aaa9a1ffb64ebe4d3effb5fdb3478964c76ab56faf1a564736f6c63430008180033",
  "linkReferences": {},
  "deployedLinkReferences": {}
}