{
  "_format": "hh-sol-artifact-1",
  "contractName": "Provenance",
  "sourceName": "contracts/supplyChain/Provenance.sol",
  "abi": [
    {
      "inputs": [],
      "stateMutability": "nonpayable",
      "type": "constructor"
    },
    {
      "anonymous": false,
      "inputs": [
        {
          "indexed": false,
          "internalType": "string",
          "name": "productName",
          "type": "string"
        },
        {
          "indexed": false,
          "internalType": "string",
          "name": "variety",
          "type": "string"
        },
        {
          "indexed": false,
          "internalType": "string",
          "name": "productType",
          "type": "string"
        },
        {
          "indexed": false,
          "internalType": "uint256",
          "name": "timestamp",
          "type": "uint256"
        },
        {
          "indexed": false,
          "internalType": "string",
          "name": "location",
          "type": "string"
        },
        {
          "indexed": false,
          "internalType": "enum Provenance.State",
          "name": "state",
          "type": "uint8"
        },
        {
          "indexed": false,
          "internalType": "string",
          "name": "additionalInfo",
          "type": "string"
        },
        {
          "indexed": false,
          "internalType": "address",
          "name": "recordCreator",
          "type": "address"
        },
        {
          "indexed": false,
          "internalType": "uint256",
          "name": "value",
          "type": "uint256"
        },
        {
          "indexed": false,
          "internalType": "uint256",
          "name": "nonce",
          "type": "uint256"
        },
        {
          "indexed": false,
          "internalType": "bytes",
          "name": "productId",
          "type": "bytes"
        }
      ],
      "name": "CreatedRecord",
      "type": "event"
    },
    {
      "anonymous": false,
      "inputs": [
        {
          "indexed": false,
          "internalType": "address",
          "name": "automatedProcess",
          "type": "address"
        }
      ],
      "name": "SetAutomatedProcess",
      "type": "event"
    },
    {
      "anonymous": false,
      "inputs": [
        {
          "indexed": false,
          "internalType": "bytes",
          "name": "productId",
          "type": "bytes"
        },
        {
          "indexed": false,
          "internalType": "uint256",
          "name": "timestamp",
          "type": "uint256"
        },
        {
          "indexed": false,
          "internalType": "string",
          "name": "location",
          "type": "string"
        },
        {
          "indexed": false,
          "internalType": "enum Provenance.State",
          "name": "state",
          "type": "uint8"
        },
        {
          "indexed": false,
          "internalType": "string",
          "name": "additionalInfo",
          "type": "string"
        },
        {
          "indexed": false,
          "internalType": "address",
          "name": "recordUpdater",
          "type": "address"
        }
      ],
      "name": "UpdatedRecord",
      "type": "event"
    },
    {
      "inputs": [],
      "name": "automatedProcess",
      "outputs": [
        {
          "internalType": "address",
          "name": "",
          "type": "address"
        }
      ],
      "stateMutability": "view",
      "type": "function"
    },
    {
      "inputs": [
        {
          "internalType": "string",
          "name": "_productName",
          "type": "string"
        },
        {
          "internalType": "string",
          "name": "_variety",
          "type": "string"
        },
        {
          "internalType": "string",
          "name": "_productType",
          "type": "string"
        },
        {
          "internalType": "uint256",
          "name": "_timestamp",
          "type": "uint256"
        },
        {
          "internalType": "string",
          "name": "_location",
          "type": "string"
        },
        {
          "internalType": "enum Provenance.State",
          "name": "_state",
          "type": "uint8"
        },
        {
          "internalType": "string",
          "name": "_additionalInfo",
          "type": "string"
        }
      ],
      "name": "createRecord",
      "outputs": [],
      "stateMutability": "payable",
      "type": "function"
    },
    {
      "inputs": [
        {
          "internalType": "bytes",
          "name": "productId",
          "type": "bytes"
        }
      ],
      "name": "decodeProductId",
      "outputs": [
        {
          "internalType": "address",
          "name": "creator",
          "type": "address"
        },
        {
          "internalType": "uint32",
          "name": "nonceValue",
          "type": "uint32"
        }
      ],
      "stateMutability": "pure",
      "type": "function"
    },
    {
      "inputs": [
        {
          "internalType": "bytes",
          "name": "_productId",
          "type": "bytes"
        }
      ],
      "name": "getHistory",
      "outputs": [
        {
          "components": [
            {
              "internalType": "string",
              "name": "productName",
              "type": "string"
            },
            {
              "internalType": "string",
              "name": "variety",
              "type": "string"
            },
            {
              "internalType": "string",
              "name": "productType",
              "type": "string"
            },
            {
              "internalType": "uint256",
              "name": "timestamp",
              "type": "uint256"
            },
            {
              "internalType": "bytes",
              "name": "location",
              "type": "bytes"
            },
            {
              "internalType": "enum Provenance.State",
              "name": "state",
              "type": "uint8"
            },
            {
              "internalType": "bytes",
              "name": "additionalInfo",
              "type": "bytes"
            }
          ],
          "internalType": "struct Provenance.ProductRecord[]",
          "name": "",
          "type": "tuple[]"
        }
      ],
      "stateMutability": "view",
      "type": "function"
    },
    {
      "inputs": [
        {
          "internalType": "bytes",
          "name": "_productId",
          "type": "bytes"
        }
      ],
      "name": "isCompleted",
      "outputs": [
        {
          "internalType": "bool",
          "name": "",
          "type": "bool"
        }
      ],
      "stateMutability": "view",
      "type": "function"
    },
    {
      "inputs": [
        {
          "internalType": "address",
          "name": "",
          "type": "address"
        }
      ],
      "name": "nonce",
      "outputs": [
        {
          "internalType": "uint32",
          "name": "",
          "type": "uint32"
        }
      ],
      "stateMutability": "view",
      "type": "function"
    },
    {
      "inputs": [],
      "name": "owner",
      "outputs": [
        {
          "internalType": "address",
          "name": "",
          "type": "address"
        }
      ],
      "stateMutability": "view",
      "type": "function"
    },
    {
      "inputs": [
        {
          "internalType": "bytes",
          "name": "",
          "type": "bytes"
        },
        {
          "internalType": "uint256",
          "name": "",
          "type": "uint256"
        }
      ],
      "name": "productHistory",
      "outputs": [
        {
          "internalType": "string",
          "name": "productName",
          "type": "string"
        },
        {
          "internalType": "string",
          "name": "variety",
          "type": "string"
        },
        {
          "internalType": "string",
          "name": "productType",
          "type": "string"
        },
        {
          "internalType": "uint256",
          "name": "timestamp",
          "type": "uint256"
        },
        {
          "internalType": "bytes",
          "name": "location",
          "type": "bytes"
        },
        {
          "internalType": "enum Provenance.State",
          "name": "state",
          "type": "uint8"
        },
        {
          "internalType": "bytes",
          "name": "additionalInfo",
          "type": "bytes"
        }
      ],
      "stateMutability": "view",
      "type": "function"
    },
    {
      "inputs": [],
      "name": "reentrancyGuard",
      "outputs": [
        {
          "internalType": "bool",
          "name": "",
          "type": "bool"
        }
      ],
      "stateMutability": "view",
      "type": "function"
    },
    {
      "inputs": [
        {
          "internalType": "address",
          "name": "_automatedProcess",
          "type": "address"
        }
      ],
      "name": "setAutomatedProcess",
      "outputs": [],
      "stateMutability": "nonpayable",
      "type": "function"
    },
    {
      "inputs": [
        {
          "internalType": "bytes",
          "name": "_productId",
          "type": "bytes"
        },
        {
          "internalType": "uint256",
          "name": "_timestamp",
          "type": "uint256"
        },
        {
          "internalType": "string",
          "name": "_location",
          "type": "string"
        },
        {
          "internalType": "enum Provenance.State",
          "name": "_state",
          "type": "uint8"
        },
        {
          "internalType": "string",
          "name": "_additionalInfo",
          "type": "string"
        }
      ],
      "name": "updateRecord",
      "outputs": [],
      "stateMutability": "nonpayable",
      "type": "function"
    }
  ],
  "bytecode": "0x60806040526003805460ff1916905534801561001a57600080fd5b50600080546001600160a01b0319163317905561214f8061003c6000396000f3fe60806040526004361061009c5760003560e01c806370ae92d21161006457806370ae92d21461015d5780638ca54d6d146101a55780638da5cb5b146101e9578063b2b7fb0414610209578063d7ecbbcc14610229578063e06776361461025657600080fd5b8063284cd53b146100a157806328ab78e0146100b65780632f992114146100eb57806341ca3f43146101235780635eb16be71461013d575b600080fd5b6100b46100af3660046119c2565b610289565b005b3480156100c257600080fd5b506100d66100d1366004611aae565b61065f565b60405190151581526020015b60405180910390f35b3480156100f757600080fd5b5060015461010b906001600160a01b031681565b6040516001600160a01b0390911681526020016100e2565b34801561012f57600080fd5b506003546100d69060ff1681565b34801561014957600080fd5b506100b4610158366004611aeb565b610a42565b34801561016957600080fd5b50610190610178366004611aeb565b60026020526000908152604090205463ffffffff1681565b60405163ffffffff90911681526020016100e2565b3480156101b157600080fd5b506101c56101c0366004611aae565b610b05565b604080516001600160a01b03909316835263ffffffff9091166020830152016100e2565b3480156101f557600080fd5b5060005461010b906001600160a01b031681565b34801561021557600080fd5b506100b4610224366004611b14565b610b76565b34801561023557600080fd5b50610249610244366004611aae565b611258565b6040516100e29190611c3f565b34801561026257600080fd5b50610276610271366004611d37565b6115ec565b6040516100e29796959493929190611d7c565b6001546001600160a01b03166102e65760405162461bcd60e51b815260206004820152601960248201527f4175746f6d617465642050726f63657373206e6f74207365740000000000000060448201526064015b60405180910390fd5b60035460ff16156103395760405162461bcd60e51b815260206004820152601f60248201527f5265656e7472616e637947756172643a207265656e7472616e742063616c6c0060448201526064016102dd565b6003805460ff191660011790556040805160e08101825288815260208101889052908101869052606081018590526080810184905260009060a0810184600281111561038757610387611c07565b81526020908101849052336000908152600290915260408120805492935063ffffffff90921691906103b883611e14565b825463ffffffff9182166101009390930a9283029282021916919091179091553360008181526002602090815260408083205490519295506104269416910160609290921b6bffffffffffffffffffffffff1916825260e01b6001600160e01b031916601482015260180190565b60405160208183030381529060405290506004816040516104479190611e37565b90815260405160209181900382019020805460018101825560009182529190208351849260070290910190819061047e9082611ede565b50602082015160018201906104939082611ede565b50604082015160028201906104a89082611ede565b5060608201516003820155608082015160048201906104c79082611ede565b5060a082015160058201805460ff191660018360028111156104eb576104eb611c07565b021790555060c082015160068201906105049082611ede565b5050341590506105ea57600154336000818152600260205260409081902054905163345f23cb60e11b815263ffffffff909116600482015260248101919091526001600160a01b03909116906368be479690349060440160206040518083038185885af1158015610579573d6000803e3d6000fd5b50505050506040513d601f19601f8201168201806040525081019061059e9190611f9e565b6105ea5760405162461bcd60e51b815260206004820152601b60248201527f4661696c656420746f207365742070726f636573732076616c7565000000000060448201526064016102dd565b33600081815260026020526040908190205490517f08471cb0992b3832d770cc090f80508f5bfd556689f5364dd7bc7483145a8dc892610642928d928d928d928d928d928d928d92349163ffffffff16908d90611fc0565b60405180910390a150506003805460ff1916905550505050505050565b6000806004836040516106729190611e37565b9081526020016040518091039020805480602002602001604051908101604052809291908181526020016000905b828210156109e957838290600052602060002090600702016040518060e00160405290816000820180546106d390611e53565b80601f01602080910402602001604051908101604052809291908181526020018280546106ff90611e53565b801561074c5780601f106107215761010080835404028352916020019161074c565b820191906000526020600020905b81548152906001019060200180831161072f57829003601f168201915b5050505050815260200160018201805461076590611e53565b80601f016020809104026020016040519081016040528092919081815260200182805461079190611e53565b80156107de5780601f106107b3576101008083540402835291602001916107de565b820191906000526020600020905b8154815290600101906020018083116107c157829003601f168201915b505050505081526020016002820180546107f790611e53565b80601f016020809104026020016040519081016040528092919081815260200182805461082390611e53565b80156108705780601f1061084557610100808354040283529160200191610870565b820191906000526020600020905b81548152906001019060200180831161085357829003601f168201915b505050505081526020016003820154815260200160048201805461089390611e53565b80601f01602080910402602001604051908101604052809291908181526020018280546108bf90611e53565b801561090c5780601f106108e15761010080835404028352916020019161090c565b820191906000526020600020905b8154815290600101906020018083116108ef57829003601f168201915b5050509183525050600582015460209091019060ff16600281111561093357610933611c07565b600281111561094457610944611c07565b815260200160068201805461095890611e53565b80601f016020809104026020016040519081016040528092919081815260200182805461098490611e53565b80156109d15780601f106109a6576101008083540402835291602001916109d1565b820191906000526020600020905b8154815290600101906020018083116109b457829003601f168201915b505050505081525050815260200190600101906106a0565b50505050905060008151118015610a3b575060028160018351610a0c9190612082565b81518110610a1c57610a1c61209b565b602002602001015160a001516002811115610a3957610a39611c07565b145b9392505050565b6000546001600160a01b03163314610ab15760405162461bcd60e51b815260206004820152602c60248201527f4f6e6c7920746865206f776e65722063616e2073657420746865206175746f6d60448201526b617465642070726f6365737360a01b60648201526084016102dd565b600180546001600160a01b0319166001600160a01b0383169081179091556040519081527f9c7e50e6991669ebb0da284e5332ebe4916af0b4ba8ffb1ab1496f77f371ccdd9060200160405180910390a150565b6000808251601814610b595760405162461bcd60e51b815260206004820152601960248201527f496e76616c69642070726f64756374206964206c656e6774680000000000000060448201526064016102dd565b5050602081015160349091015160609190911c9160e09190911c90565b6000600486604051610b889190611e37565b9081526020016040518091039020805480602002602001604051908101604052809291908181526020016000905b82821015610eff57838290600052602060002090600702016040518060e0016040529081600082018054610be990611e53565b80601f0160208091040260200160405190810160405280929190818152602001828054610c1590611e53565b8015610c625780601f10610c3757610100808354040283529160200191610c62565b820191906000526020600020905b815481529060010190602001808311610c4557829003601f168201915b50505050508152602001600182018054610c7b90611e53565b80601f0160208091040260200160405190810160405280929190818152602001828054610ca790611e53565b8015610cf45780601f10610cc957610100808354040283529160200191610cf4565b820191906000526020600020905b815481529060010190602001808311610cd757829003601f168201915b50505050508152602001600282018054610d0d90611e53565b80601f0160208091040260200160405190810160405280929190818152602001828054610d3990611e53565b8015610d865780601f10610d5b57610100808354040283529160200191610d86565b820191906000526020600020905b815481529060010190602001808311610d6957829003601f168201915b5050505050815260200160038201548152602001600482018054610da990611e53565b80601f0160208091040260200160405190810160405280929190818152602001828054610dd590611e53565b8015610e225780601f10610df757610100808354040283529160200191610e22565b820191906000526020600020905b815481529060010190602001808311610e0557829003601f168201915b5050509183525050600582015460209091019060ff166002811115610e4957610e49611c07565b6002811115610e5a57610e5a611c07565b8152602001600682018054610e6e90611e53565b80601f0160208091040260200160405190810160405280929190818152602001828054610e9a90611e53565b8015610ee75780601f10610ebc57610100808354040283529160200191610ee7565b820191906000526020600020905b815481529060010190602001808311610eca57829003601f168201915b50505050508152505081526020019060010190610bb6565b5050505090506000815111610f625760405162461bcd60e51b815260206004820152602360248201527f4e6f207265636f726420666f756e6420666f7220746869732070726f6475637460448201526208125160ea1b60648201526084016102dd565b6000610f6d87610b05565b506000549091506001600160a01b0316331480610f925750336001600160a01b038216145b6110045760405162461bcd60e51b815260206004820152603960248201527f4f6e6c7920746865206f776e6572206f72207468652063726561746f72206f6660448201527f20746865207265636f72642063616e207570646174652069740000000000000060648201526084016102dd565b61100d8761065f565b156110805760405162461bcd60e51b815260206004820152603760248201527f43616e6e6f74207570646174652061207265636f72642074686174206973206960448201527f6e207468652027436f6d706c657465642720737461746500000000000000000060648201526084016102dd565b6004876040516110909190611e37565b90815260200160405180910390206040518060e0016040528084600186516110b89190612082565b815181106110c8576110c861209b565b602002602001015160000151815260200184600186516110e89190612082565b815181106110f8576110f861209b565b602002602001015160200151815260200184600186516111189190612082565b815181106111285761112861209b565b602002602001015160400151815260200188815260200187815260200186600281111561115757611157611c07565b8152602090810186905282546001810184556000938452922081519192600702019081906111859082611ede565b506020820151600182019061119a9082611ede565b50604082015160028201906111af9082611ede565b5060608201516003820155608082015160048201906111ce9082611ede565b5060a082015160058201805460ff191660018360028111156111f2576111f2611c07565b021790555060c0820151600682019061120b9082611ede565b5050507fe577cb91e04f28b0f048d83742af48e22ad01f7ec7dd165e761a12919d222b6c878787878733604051611247969594939291906120b1565b60405180910390a150505050505050565b606060048260405161126a9190611e37565b9081526020016040518091039020805480602002602001604051908101604052809291908181526020016000905b828210156115e157838290600052602060002090600702016040518060e00160405290816000820180546112cb90611e53565b80601f01602080910402602001604051908101604052809291908181526020018280546112f790611e53565b80156113445780601f1061131957610100808354040283529160200191611344565b820191906000526020600020905b81548152906001019060200180831161132757829003601f168201915b5050505050815260200160018201805461135d90611e53565b80601f016020809104026020016040519081016040528092919081815260200182805461138990611e53565b80156113d65780601f106113ab576101008083540402835291602001916113d6565b820191906000526020600020905b8154815290600101906020018083116113b957829003601f168201915b505050505081526020016002820180546113ef90611e53565b80601f016020809104026020016040519081016040528092919081815260200182805461141b90611e53565b80156114685780601f1061143d57610100808354040283529160200191611468565b820191906000526020600020905b81548152906001019060200180831161144b57829003601f168201915b505050505081526020016003820154815260200160048201805461148b90611e53565b80601f01602080910402602001604051908101604052809291908181526020018280546114b790611e53565b80156115045780601f106114d957610100808354040283529160200191611504565b820191906000526020600020905b8154815290600101906020018083116114e757829003601f168201915b5050509183525050600582015460209091019060ff16600281111561152b5761152b611c07565b600281111561153c5761153c611c07565b815260200160068201805461155090611e53565b80601f016020809104026020016040519081016040528092919081815260200182805461157c90611e53565b80156115c95780601f1061159e576101008083540402835291602001916115c9565b820191906000526020600020905b8154815290600101906020018083116115ac57829003601f168201915b50505050508152505081526020019060010190611298565b505050509050919050565b8151602081840181018051600482529282019185019190912091905280548290811061161757600080fd5b90600052602060002090600702016000915091505080600001805461163b90611e53565b80601f016020809104026020016040519081016040528092919081815260200182805461166790611e53565b80156116b45780601f10611689576101008083540402835291602001916116b4565b820191906000526020600020905b81548152906001019060200180831161169757829003601f168201915b5050505050908060010180546116c990611e53565b80601f01602080910402602001604051908101604052809291908181526020018280546116f590611e53565b80156117425780601f1061171757610100808354040283529160200191611742565b820191906000526020600020905b81548152906001019060200180831161172557829003601f168201915b50505050509080600201805461175790611e53565b80601f016020809104026020016040519081016040528092919081815260200182805461178390611e53565b80156117d05780601f106117a5576101008083540402835291602001916117d0565b820191906000526020600020905b8154815290600101906020018083116117b357829003601f168201915b5050505050908060030154908060040180546117eb90611e53565b80601f016020809104026020016040519081016040528092919081815260200182805461181790611e53565b80156118645780601f1061183957610100808354040283529160200191611864565b820191906000526020600020905b81548152906001019060200180831161184757829003601f168201915b5050506005840154600685018054949560ff90921694919350915061188890611e53565b80601f01602080910402602001604051908101604052809291908181526020018280546118b490611e53565b80156119015780601f106118d657610100808354040283529160200191611901565b820191906000526020600020905b8154815290600101906020018083116118e457829003601f168201915b5050505050905087565b634e487b7160e01b600052604160045260246000fd5b600082601f83011261193257600080fd5b813567ffffffffffffffff8082111561194d5761194d61190b565b604051601f8301601f19908116603f011681019082821181831017156119755761197561190b565b8160405283815286602085880101111561198e57600080fd5b836020870160208301376000602085830101528094505050505092915050565b8035600381106119bd57600080fd5b919050565b600080600080600080600060e0888a0312156119dd57600080fd5b873567ffffffffffffffff808211156119f557600080fd5b611a018b838c01611921565b985060208a0135915080821115611a1757600080fd5b611a238b838c01611921565b975060408a0135915080821115611a3957600080fd5b611a458b838c01611921565b965060608a0135955060808a0135915080821115611a6257600080fd5b611a6e8b838c01611921565b9450611a7c60a08b016119ae565b935060c08a0135915080821115611a9257600080fd5b50611a9f8a828b01611921565b91505092959891949750929550565b600060208284031215611ac057600080fd5b813567ffffffffffffffff811115611ad757600080fd5b611ae384828501611921565b949350505050565b600060208284031215611afd57600080fd5b81356001600160a01b0381168114610a3b57600080fd5b600080600080600060a08688031215611b2c57600080fd5b853567ffffffffffffffff80821115611b4457600080fd5b611b5089838a01611921565b9650602088013595506040880135915080821115611b6d57600080fd5b611b7989838a01611921565b9450611b87606089016119ae565b93506080880135915080821115611b9d57600080fd5b50611baa88828901611921565b9150509295509295909350565b60005b83811015611bd2578181015183820152602001611bba565b50506000910152565b60008151808452611bf3816020860160208601611bb7565b601f01601f19169290920160200192915050565b634e487b7160e01b600052602160045260246000fd5b60038110611c3b57634e487b7160e01b600052602160045260246000fd5b9052565b600060208083018184528085518083526040925060408601915060408160051b87010184880160005b83811015611d2957603f19898403018552815160e08151818652611c8e82870182611bdb565b915050888201518582038a870152611ca68282611bdb565b9150508782015185820389870152611cbe8282611bdb565b915050606080830151818701525060808083015186830382880152611ce38382611bdb565b9250505060a080830151611cf982880182611c1d565b505060c08083015192508582038187015250611d158183611bdb565b968901969450505090860190600101611c68565b509098975050505050505050565b60008060408385031215611d4a57600080fd5b823567ffffffffffffffff811115611d6157600080fd5b611d6d85828601611921565b95602094909401359450505050565b60e081526000611d8f60e083018a611bdb565b8281036020840152611da1818a611bdb565b90508281036040840152611db58189611bdb565b90508660608401528281036080840152611dcf8187611bdb565b9050611dde60a0840186611c1d565b82810360c0840152611df08185611bdb565b9a9950505050505050505050565b634e487b7160e01b600052601160045260246000fd5b600063ffffffff808316818103611e2d57611e2d611dfe565b6001019392505050565b60008251611e49818460208701611bb7565b9190910192915050565b600181811c90821680611e6757607f821691505b602082108103611e8757634e487b7160e01b600052602260045260246000fd5b50919050565b601f821115611ed9576000816000526020600020601f850160051c81016020861015611eb65750805b601f850160051c820191505b81811015611ed557828155600101611ec2565b5050505b505050565b815167ffffffffffffffff811115611ef857611ef861190b565b611f0c81611f068454611e53565b84611e8d565b602080601f831160018114611f415760008415611f295750858301515b600019600386901b1c1916600185901b178555611ed5565b600085815260208120601f198616915b82811015611f7057888601518255948401946001909101908401611f51565b5085821015611f8e5787850151600019600388901b60f8161c191681555b5050505050600190811b01905550565b600060208284031215611fb057600080fd5b81518015158114610a3b57600080fd5b6000610160808352611fd48184018f611bdb565b90508281036020840152611fe8818e611bdb565b90508281036040840152611ffc818d611bdb565b90508a60608401528281036080840152612016818b611bdb565b905061202560a084018a611c1d565b82810360c08401526120378189611bdb565b6001600160a01b03881660e0850152610100840187905263ffffffff861661012085015290508281036101408401526120708185611bdb565b9e9d5050505050505050505050505050565b8181038181111561209557612095611dfe565b92915050565b634e487b7160e01b600052603260045260246000fd5b60c0815260006120c460c0830189611bdb565b87602084015282810360408401526120dc8188611bdb565b90506120eb6060840187611c1d565b82810360808401526120fd8186611bdb565b91505060018060a01b03831660a083015297965050505050505056fea264697066735822122034263fc5fe40c2c6610e6a254a1fcba41747d2fbae78b192105e1c585a15f67c64736f6c63430008180033",
  "linkReferences": {},
  "deployedLinkReferences": {}
}