{
  "_format": "hh-sol-artifact-1",
  "contractName": "FungibleToken",
  "sourceName": "contracts/finance/FungibleToken.sol",
  "abi": [
    {
      "inputs": [
        {
          "internalType": "string",
          "name": "_name",
          "type": "string"
        },
        {
          "internalType": "string",
          "name": "_symbol",
          "type": "string"
        },
        {
          "internalType": "uint256",
          "name": "_initialSupply",
          "type": "uint256"
        }
      ],
      "stateMutability": "nonpayable",
      "type": "constructor"
    },
    {
      "anonymous": false,
      "inputs": [
        {
          "indexed": true,
          "internalType": "address",
          "name": "owner",
          "type": "address"
        },
        {
          "indexed": true,
          "internalType": "address",
          "name": "spender",
          "type": "address"
        },
        {
          "indexed": false,
          "internalType": "uint256",
          "name": "value",
          "type": "uint256"
        }
      ],
      "name": "Approval",
      "type": "event"
    },
    {
      "anonymous": false,
      "inputs": [
        {
          "indexed": true,
          "internalType": "address",
          "name": "from",
          "type": "address"
        },
        {
          "indexed": true,
          "internalType": "address",
          "name": "to",
          "type": "address"
        },
        {
          "indexed": false,
          "internalType": "uint256",
          "name": "value",
          "type": "uint256"
        }
      ],
      "name": "Transfer",
      "type": "event"
    },
    {
      "inputs": [
        {
          "internalType": "address",
          "name": "owner",
          "type": "address"
        },
        {
          "internalType": "address",
          "name": "spender",
          "type": "address"
        }
      ],
      "name": "allowance",
      "outputs": [
        {
          "internalType": "uint256",
          "name": "",
          "type": "uint256"
        }
      ],
      "stateMutability": "view",
      "type": "function"
    },
    {
      "inputs": [
        {
          "internalType": "address",
          "name": "spender",
          "type": "address"
        },
        {
          "internalType": "uint256",
          "name": "amount",
          "type": "uint256"
        }
      ],
      "name": "approve",
      "outputs": [
        {
          "internalType": "bool",
          "name": "",
          "type": "bool"
        }
      ],
      "stateMutability": "nonpayable",
      "type": "function"
    },
    {
      "inputs": [
        {
          "internalType": "address",
          "name": "account",
          "type": "address"
        }
      ],
      "name": "balanceOf",
      "outputs": [
        {
          "internalType": "uint256",
          "name": "",
          "type": "uint256"
        }
      ],
      "stateMutability": "view",
      "type": "function"
    },
    {
      "inputs": [],
      "name": "decimals",
      "outputs": [
        {
          "internalType": "uint8",
          "name": "",
          "type": "uint8"
        }
      ],
      "stateMutability": "view",
      "type": "function"
    },
    {
      "inputs": [
        {
          "internalType": "address",
          "name": "spender",
          "type": "address"
        },
        {
          "internalType": "uint256",
          "name": "subtractedValue",
          "type": "uint256"
        }
      ],
      "name": "decreaseAllowance",
      "outputs": [
        {
          "internalType": "bool",
          "name": "",
          "type": "bool"
        }
      ],
      "stateMutability": "nonpayable",
      "type": "function"
    },
    {
      "inputs": [
        {
          "internalType": "address",
          "name": "spender",
          "type": "address"
        },
        {
          "internalType": "uint256",
          "name": "addedValue",
          "type": "uint256"
        }
      ],
      "name": "increaseAllowance",
      "outputs": [
        {
          "internalType": "bool",
          "name": "",
          "type": "bool"
        }
      ],
      "stateMutability": "nonpayable",
      "type": "function"
    },
    {
      "inputs": [
        {
          "internalType": "address",
          "name": "_to",
          "type": "address"
        },
        {
          "internalType": "uint256",
          "name": "_amount",
          "type": "uint256"
        }
      ],
      "name": "mint",
      "outputs": [],
      "stateMutability": "nonpayable",
      "type": "function"
    },
    {
      "inputs": [],
      "name": "name",
      "outputs": [
        {
          "internalType": "string",
          "name": "",
          "type": "string"
        }
      ],
      "stateMutability": "view",
      "type": "function"
    },
    {
      "inputs": [],
      "name": "owner",
      "outputs": [
        {
          "internalType": "address",
          "name": "",
          "type": "address"
        }
      ],
      "stateMutability": "view",
      "type": "function"
    },
    {
      "inputs": [],
      "name": "symbol",
      "outputs": [
        {
          "internalType": "string",
          "name": "",
          "type": "string"
        }
      ],
      "stateMutability": "view",
      "type": "function"
    },
    {
      "inputs": [],
      "name": "totalSupply",
      "outputs": [
        {
          "internalType": "uint256",
          "name": "",
          "type": "uint256"
        }
      ],
      "stateMutability": "view",
      "type": "function"
    },
    {
      "inputs": [
        {
          "internalType": "address",
          "name": "to",
          "type": "address"
        },
        {
          "internalType": "uint256",
          "name": "amount",
          "type": "uint256"
        }
      ],
      "name": "transfer",
      "outputs": [
        {
          "internalType": "bool",
          "name": "",
          "type": "bool"
        }
      ],
      "stateMutability": "nonpayable",
      "type": "function"
    },
    {
      "inputs": [
        {
          "internalType": "address",
          "name": "from",
          "type": "address"
        },
        {
          "internalType": "address",
          "name": "to",
          "type": "address"
        },
        {
          "internalType": "uint256",
          "name": "amount",
          "type": "uint256"
        }
      ],
      "name": "transferFrom",
      "outputs": [
        {
          "internalType": "bool",
          "name": "",
          "type": "bool"
        }
      ],
      "stateMutability": "nonpayable",
      "type": "function"
    }
  ],
  "bytecode": "0x60806040523480156200001157600080fd5b5060405162000dfa38038062000dfa833981016040819052620000349162000213565b8282600362000044838262000316565b50600462000053828262000316565b5050600580546001600160a01b031916339081179091556200007791508262000080565b5050506200040a565b6001600160a01b038216620000db5760405162461bcd60e51b815260206004820152601f60248201527f45524332303a206d696e7420746f20746865207a65726f206164647265737300604482015260640160405180910390fd5b8060026000828254620000ef9190620003e2565b90915550506001600160a01b038216600081815260208181526040808320805486019055518481527fddf252ad1be2c89b69c2b068fc378daa952ba7f163c4a11628f55a4df523b3ef910160405180910390a35050565b505050565b634e487b7160e01b600052604160045260246000fd5b600082601f8301126200017357600080fd5b81516001600160401b03808211156200019057620001906200014b565b604051601f8301601f19908116603f01168101908282118183101715620001bb57620001bb6200014b565b8160405283815260209250866020858801011115620001d957600080fd5b600091505b83821015620001fd5785820183015181830184015290820190620001de565b6000602085830101528094505050505092915050565b6000806000606084860312156200022957600080fd5b83516001600160401b03808211156200024157600080fd5b6200024f8783880162000161565b945060208601519150808211156200026657600080fd5b50620002758682870162000161565b925050604084015190509250925092565b600181811c908216806200029b57607f821691505b602082108103620002bc57634e487b7160e01b600052602260045260246000fd5b50919050565b601f82111562000146576000816000526020600020601f850160051c81016020861015620002ed5750805b601f850160051c820191505b818110156200030e57828155600101620002f9565b505050505050565b81516001600160401b038111156200033257620003326200014b565b6200034a8162000343845462000286565b84620002c2565b602080601f831160018114620003825760008415620003695750858301515b600019600386901b1c1916600185901b1785556200030e565b600085815260208120601f198616915b82811015620003b35788860151825594840194600190910190840162000392565b5085821015620003d25787850151600019600388901b60f8161c191681555b5050505050600190811b01905550565b808201808211156200040457634e487b7160e01b600052601160045260246000fd5b92915050565b6109e0806200041a6000396000f3fe608060405234801561001057600080fd5b50600436106100cf5760003560e01c806340c10f191161008c57806395d89b411161006657806395d89b41146101c5578063a457c2d7146101cd578063a9059cbb146101e0578063dd62ed3e146101f357600080fd5b806340c10f191461015c57806370a08231146101715780638da5cb5b1461019a57600080fd5b806306fdde03146100d4578063095ea7b3146100f257806318160ddd1461011557806323b872dd14610127578063313ce5671461013a5780633950935114610149575b600080fd5b6100dc610206565b6040516100e99190610829565b60405180910390f35b610105610100366004610894565b610298565b60405190151581526020016100e9565b6002545b6040519081526020016100e9565b6101056101353660046108be565b6102b2565b604051601281526020016100e9565b610105610157366004610894565b6102d6565b61016f61016a366004610894565b6102f8565b005b61011961017f3660046108fa565b6001600160a01b031660009081526020819052604090205490565b6005546101ad906001600160a01b031681565b6040516001600160a01b0390911681526020016100e9565b6100dc610365565b6101056101db366004610894565b610374565b6101056101ee366004610894565b6103ef565b61011961020136600461091c565b6103fd565b6060600380546102159061094f565b80601f01602080910402602001604051908101604052809291908181526020018280546102419061094f565b801561028e5780601f106102635761010080835404028352916020019161028e565b820191906000526020600020905b81548152906001019060200180831161027157829003601f168201915b5050505050905090565b6000336102a6818585610428565b60019150505b92915050565b6000336102c085828561054c565b6102cb8585856105c6565b506001949350505050565b6000336102a68185856102e983836103fd565b6102f39190610989565b610428565b6005546001600160a01b031633146103575760405162461bcd60e51b815260206004820152601e60248201527f4f6e6c7920746865206f776e65722063616e206d696e7420746f6b656e73000060448201526064015b60405180910390fd5b610361828261076a565b5050565b6060600480546102159061094f565b6000338161038282866103fd565b9050838110156103e25760405162461bcd60e51b815260206004820152602560248201527f45524332303a2064656372656173656420616c6c6f77616e63652062656c6f77604482015264207a65726f60d81b606482015260840161034e565b6102cb8286868403610428565b6000336102a68185856105c6565b6001600160a01b03918216600090815260016020908152604080832093909416825291909152205490565b6001600160a01b03831661048a5760405162461bcd60e51b8152602060048201526024808201527f45524332303a20617070726f76652066726f6d20746865207a65726f206164646044820152637265737360e01b606482015260840161034e565b6001600160a01b0382166104eb5760405162461bcd60e51b815260206004820152602260248201527f45524332303a20617070726f766520746f20746865207a65726f206164647265604482015261737360f01b606482015260840161034e565b6001600160a01b0383811660008181526001602090815260408083209487168084529482529182902085905590518481527f8c5be1e5ebec7d5bd14f71427d1e84f3dd0314c0f7b2291e5b200ac8c7c3b925910160405180910390a3505050565b600061055884846103fd565b905060001981146105c057818110156105b35760405162461bcd60e51b815260206004820152601d60248201527f45524332303a20696e73756666696369656e7420616c6c6f77616e6365000000604482015260640161034e565b6105c08484848403610428565b50505050565b6001600160a01b03831661062a5760405162461bcd60e51b815260206004820152602560248201527f45524332303a207472616e736665722066726f6d20746865207a65726f206164604482015264647265737360d81b606482015260840161034e565b6001600160a01b03821661068c5760405162461bcd60e51b815260206004820152602360248201527f45524332303a207472616e7366657220746f20746865207a65726f206164647260448201526265737360e81b606482015260840161034e565b6001600160a01b038316600090815260208190526040902054818110156107045760405162461bcd60e51b815260206004820152602660248201527f45524332303a207472616e7366657220616d6f756e7420657863656564732062604482015265616c616e636560d01b606482015260840161034e565b6001600160a01b03848116600081815260208181526040808320878703905593871680835291849020805487019055925185815290927fddf252ad1be2c89b69c2b068fc378daa952ba7f163c4a11628f55a4df523b3ef910160405180910390a36105c0565b6001600160a01b0382166107c05760405162461bcd60e51b815260206004820152601f60248201527f45524332303a206d696e7420746f20746865207a65726f206164647265737300604482015260640161034e565b80600260008282546107d29190610989565b90915550506001600160a01b038216600081815260208181526040808320805486019055518481527fddf252ad1be2c89b69c2b068fc378daa952ba7f163c4a11628f55a4df523b3ef910160405180910390a35050565b60006020808352835180602085015260005b818110156108575785810183015185820160400152820161083b565b506000604082860101526040601f19601f8301168501019250505092915050565b80356001600160a01b038116811461088f57600080fd5b919050565b600080604083850312156108a757600080fd5b6108b083610878565b946020939093013593505050565b6000806000606084860312156108d357600080fd5b6108dc84610878565b92506108ea60208501610878565b9150604084013590509250925092565b60006020828403121561090c57600080fd5b61091582610878565b9392505050565b6000806040838503121561092f57600080fd5b61093883610878565b915061094660208401610878565b90509250929050565b600181811c9082168061096357607f821691505b60208210810361098357634e487b7160e01b600052602260045260246000fd5b50919050565b808201808211156102ac57634e487b7160e01b600052601160045260246000fdfea2646970667358221220d5d115cbde80791bb5119a209245f5f8eef6eb45d956189a6cfc2ffb113b847164736f6c63430008180033",
  "linkReferences": {},
  "deployedLinkReferences": {}
}