{
  "_format": "hh-sol-artifact-1",
  "contractName": "ConstantSum",
  "sourceName": "contracts/finance/ConstantSum.sol",
  "abi": [
    {
      "inputs": [
        {
          "internalType": "contract IERC20",
          "name": "_tokenA",
          "type": "address"
        },
        {
          "internalType": "contract IERC20",
          "name": "_tokenB",
          "type": "address"
        }
      ],
      "stateMutability": "nonpayable",
      "type": "constructor"
    },
    {
      "anonymous": false,
      "inputs": [
        {
          "indexed": true,
          "internalType": "address",
          "name": "to",
          "type": "address"
        },
        {
          "indexed": false,
          "internalType": "uint256",
          "name": "amount",
          "type": "uint256"
        }
      ],
      "name": "AddedLiquidity",
      "type": "event"
    },
    {
      "anonymous": false,
      "inputs": [
        {
          "indexed": true,
          "internalType": "address",
          "name": "from",
          "type": "address"
        },
        {
          "indexed": false,
          "internalType": "uint256",
          "name": "amount",
          "type": "uint256"
        }
      ],
      "name": "RemovedLiquidity",
      "type": "event"
    },
    {
      "anonymous": false,
      "inputs": [
        {
          "indexed": true,
          "internalType": "address",
          "name": "from",
          "type": "address"
        },
        {
          "indexed": true,
          "internalType": "address",
          "name": "to",
          "type": "address"
        },
        {
          "indexed": false,
          "internalType": "uint256",
          "name": "amountReceived",
          "type": "uint256"
        },
        {
          "indexed": false,
          "internalType": "uint256",
          "name": "amountReturned",
          "type": "uint256"
        }
      ],
      "name": "Swapped",
      "type": "event"
    },
    {
      "inputs": [
        {
          "internalType": "uint256",
          "name": "_amountA",
          "type": "uint256"
        },
        {
          "internalType": "uint256",
          "name": "_amountB",
          "type": "uint256"
        }
      ],
      "name": "addLiquidity",
      "outputs": [
        {
          "internalType": "uint256",
          "name": "_shares",
          "type": "uint256"
        }
      ],
      "stateMutability": "nonpayable",
      "type": "function"
    },
    {
      "inputs": [
        {
          "internalType": "address",
          "name": "",
          "type": "address"
        }
      ],
      "name": "balanceOf",
      "outputs": [
        {
          "internalType": "uint256",
          "name": "",
          "type": "uint256"
        }
      ],
      "stateMutability": "view",
      "type": "function"
    },
    {
      "inputs": [
        {
          "internalType": "address",
          "name": "_tokenIn",
          "type": "address"
        },
        {
          "internalType": "uint256",
          "name": "_amountIn",
          "type": "uint256"
        }
      ],
      "name": "getAmountOut",
      "outputs": [
        {
          "internalType": "uint256",
          "name": "_amountOut",
          "type": "uint256"
        }
      ],
      "stateMutability": "view",
      "type": "function"
    },
    {
      "inputs": [
        {
          "internalType": "uint256",
          "name": "_shares",
          "type": "uint256"
        }
      ],
      "name": "getLiquidityAmounts",
      "outputs": [
        {
          "internalType": "uint256",
          "name": "_amountA",
          "type": "uint256"
        },
        {
          "internalType": "uint256",
          "name": "_amountB",
          "type": "uint256"
        }
      ],
      "stateMutability": "view",
      "type": "function"
    },
    {
      "inputs": [
        {
          "internalType": "address",
          "name": "_tokenIn",
          "type": "address"
        },
        {
          "internalType": "uint256",
          "name": "_amountIn",
          "type": "uint256"
        }
      ],
      "name": "getRequiredLiquidityAmount",
      "outputs": [
        {
          "internalType": "uint256",
          "name": "requiredAmount",
          "type": "uint256"
        }
      ],
      "stateMutability": "view",
      "type": "function"
    },
    {
      "inputs": [],
      "name": "owner",
      "outputs": [
        {
          "internalType": "address",
          "name": "",
          "type": "address"
        }
      ],
      "stateMutability": "view",
      "type": "function"
    },
    {
      "inputs": [
        {
          "internalType": "uint256",
          "name": "_shares",
          "type": "uint256"
        }
      ],
      "name": "removeLiquidity",
      "outputs": [
        {
          "internalType": "uint256",
          "name": "_amountA",
          "type": "uint256"
        },
        {
          "internalType": "uint256",
          "name": "_amountB",
          "type": "uint256"
        }
      ],
      "stateMutability": "nonpayable",
      "type": "function"
    },
    {
      "inputs": [],
      "name": "reserveA",
      "outputs": [
        {
          "internalType": "uint256",
          "name": "",
          "type": "uint256"
        }
      ],
      "stateMutability": "view",
      "type": "function"
    },
    {
      "inputs": [],
      "name": "reserveB",
      "outputs": [
        {
          "internalType": "uint256",
          "name": "",
          "type": "uint256"
        }
      ],
      "stateMutability": "view",
      "type": "function"
    },
    {
      "inputs": [
        {
          "internalType": "address",
          "name": "_tokenReceived",
          "type": "address"
        },
        {
          "internalType": "uint256",
          "name": "_amountReceived",
          "type": "uint256"
        }
      ],
      "name": "swap",
      "outputs": [
        {
          "internalType": "uint256",
          "name": "_amountReturned",
          "type": "uint256"
        }
      ],
      "stateMutability": "nonpayable",
      "type": "function"
    },
    {
      "inputs": [],
      "name": "tokenA",
      "outputs": [
        {
          "internalType": "contract IERC20",
          "name": "",
          "type": "address"
        }
      ],
      "stateMutability": "view",
      "type": "function"
    },
    {
      "inputs": [],
      "name": "tokenB",
      "outputs": [
        {
          "internalType": "contract IERC20",
          "name": "",
          "type": "address"
        }
      ],
      "stateMutability": "view",
      "type": "function"
    },
    {
      "inputs": [],
      "name": "totalSupply",
      "outputs": [
        {
          "internalType": "uint256",
          "name": "",
          "type": "uint256"
        }
      ],
      "stateMutability": "view",
      "type": "function"
    }
  ],
  "bytecode": "0x60e06040523480156200001157600080fd5b5060405162001a8738038062001a8783398101604081905262000034916200006d565b3360c0526001600160a01b039182166080521660a052620000a5565b80516001600160a01b03811681146200006857600080fd5b919050565b600080604083850312156200008157600080fd5b6200008c8362000050565b91506200009c6020840162000050565b90509250929050565b60805160a05160c0516118da620001ad60003960008181610197015281816111b6015261133601526000818161013d01528181610326015281816104fb015281816106d20152818161088c01528181610ada01528181610c7c01528181610d4401528181610f8a0152818161101f0152818161110f0152818161130f0152818161144f015261157d01526000818160d9015281816102820152818161046501528181610640015281816107f801528181610a5201528181610bf301528181610d0901528181610e0c01528181610e5a01528181610eef015281816110bc0152818161118f0152818161128f015281816113f00152818161142901526114ef01526118da6000f3fe608060405234801561001057600080fd5b50600436106100cf5760003560e01c80638da5cb5b1161008c578063ca706bcf11610066578063ca706bcf146101f4578063d004f0f714610207578063dc5fa6c51461021a578063f049eb4c1461022357600080fd5b80638da5cb5b146101925780639c8f9f23146101b95780639cd441da146101e157600080fd5b80630fc63d10146100d457806318160ddd1461011857806319e36f3b1461012f5780635f64b55b146101385780636a5201241461015f57806370a0823114610172575b600080fd5b6100fb7f000000000000000000000000000000000000000000000000000000000000000081565b6040516001600160a01b0390911681526020015b60405180910390f35b61012160025481565b60405190815260200161010f565b61012160015481565b6100fb7f000000000000000000000000000000000000000000000000000000000000000081565b61012161016d366004611750565b610236565b61012161018036600461177a565b60036020526000908152604090205481565b6100fb7f000000000000000000000000000000000000000000000000000000000000000081565b6101cc6101c7366004611795565b6103fa565b6040805192835260208301919091520161010f565b6101216101ef3660046117ae565b610784565b610121610202366004611750565b610b88565b610121610215366004611750565b610d05565b61012160005481565b6101cc610231366004611795565b6114cb565b60008082116102805760405162461bcd60e51b81526020600482015260116024820152700496e707574206d757374206265203e203607c1b60448201526064015b60405180910390fd5b7f00000000000000000000000000000000000000000000000000000000000000006001600160a01b0316836001600160a01b0316036103245760008054116103035760405162461bcd60e51b81526020600482015260166024820152754e6f206c697175696469747920617661696c61626c6560501b6044820152606401610277565b60005460015461031390846117e6565b61031d91906117fd565b90506103f4565b7f00000000000000000000000000000000000000000000000000000000000000006001600160a01b0316836001600160a01b0316036103b8576000600154116103a85760405162461bcd60e51b81526020600482015260166024820152754e6f206c697175696469747920617661696c61626c6560501b6044820152606401610277565b60015460005461031390846117e6565b60405162461bcd60e51b81526020600482015260116024820152702a37b5b2b7103737ba1034b7103830b4b960791b6044820152606401610277565b92915050565b6000806000831161044d5760405162461bcd60e51b815260206004820152601d60248201527f536861726573206d7573742062652067726561746572207468616e20300000006044820152606401610277565b6040516370a0823160e01b81523060048201526000907f00000000000000000000000000000000000000000000000000000000000000006001600160a01b0316906370a0823190602401602060405180830381865afa1580156104b4573d6000803e3d6000fd5b505050506040513d601f19601f820116820180604052508101906104d8919061181f565b6040516370a0823160e01b81523060048201529091506000906001600160a01b037f000000000000000000000000000000000000000000000000000000000000000016906370a0823190602401602060405180830381865afa158015610542573d6000803e3d6000fd5b505050506040513d601f19601f82011682018060405250810190610566919061181f565b60025490915061057683876117e6565b61058091906117fd565b60025490945061059082876117e6565b61059a91906117fd565b92506000841180156105ac5750600083115b6105f85760405162461bcd60e51b815260206004820152601860248201527f5f616d6f756e7441206f72205f616d6f756e7442203d203000000000000000006044820152606401610277565b6106023386611625565b61062461060f8584611838565b6106198584611838565b600091909155600155565b60405163a9059cbb60e01b8152336004820152602481018590527f00000000000000000000000000000000000000000000000000000000000000006001600160a01b03169063a9059cbb906044016020604051808303816000875af1158015610691573d6000803e3d6000fd5b505050506040513d601f19601f820116820180604052508101906106b5919061184b565b5060405163a9059cbb60e01b8152336004820152602481018490527f00000000000000000000000000000000000000000000000000000000000000006001600160a01b03169063a9059cbb906044016020604051808303816000875af1158015610723573d6000803e3d6000fd5b505050506040513d601f19601f82011682018060405250810190610747919061184b565b5060405185815233907f882957247ac8c668ed6750dccfb1b01b6ca384eba7cf1d2939c3ad71843693489060200160405180910390a25050915091565b600080831180156107955750600082115b6107e15760405162461bcd60e51b815260206004820152601d60248201527f416d6f756e74206d7573742062652067726561746572207468616e20300000006044820152606401610277565b6040516323b872dd60e01b81526001600160a01b037f000000000000000000000000000000000000000000000000000000000000000016906323b872dd906108319033903090889060040161186d565b6020604051808303816000875af1158015610850573d6000803e3d6000fd5b505050506040513d601f19601f82011682018060405250810190610874919061184b565b506040516323b872dd60e01b81526001600160a01b037f000000000000000000000000000000000000000000000000000000000000000016906323b872dd906108c59033903090879060040161186d565b6020604051808303816000875af11580156108e4573d6000803e3d6000fd5b505050506040513d601f19601f82011682018060405250810190610908919061184b565b5060008054118061091b57506000600154115b1561097c578260015461092e91906117e6565b8260005461093c91906117e6565b1461097c5760405162461bcd60e51b815260206004820152601060248201526f6478202f20647920213d2078202f207960801b6044820152606401610277565b60025460000361099f5761099861099383856117e6565b61166f565b90506109df565b6109dc600054600254856109b391906117e6565b6109bd91906117fd565b6001546002546109cd90866117e6565b6109d791906117fd565b6116df565b90505b60008111610a2f5760405162461bcd60e51b815260206004820152601d60248201527f536861726573206d7573742062652067726561746572207468616e20300000006044820152606401610277565b610a3933826116f8565b6040516370a0823160e01b8152306004820152610b4d907f00000000000000000000000000000000000000000000000000000000000000006001600160a01b0316906370a0823190602401602060405180830381865afa158015610aa1573d6000803e3d6000fd5b505050506040513d601f19601f82011682018060405250810190610ac5919061181f565b6040516370a0823160e01b81523060048201527f00000000000000000000000000000000000000000000000000000000000000006001600160a01b0316906370a0823190602401602060405180830381865afa158015610b29573d6000803e3d6000fd5b505050506040513d601f19601f82011682018060405250810190610619919061181f565b60405181815233907fe7fe080b09a4b64ca6809c33d36a0b2c9076c373e7f9da7b5f19cef93fc87e509060200160405180910390a292915050565b6000808211610bd15760405162461bcd60e51b81526020600482015260156024820152740416d6f756e7420696e206d757374206265203e203605c1b6044820152606401610277565b60006103e8610be2846103e56117e6565b610bec91906117fd565b90508091507f00000000000000000000000000000000000000000000000000000000000000006001600160a01b0316846001600160a01b031603610c7a57600154821115610c755760405162461bcd60e51b8152602060048201526016602482015275496e73756666696369656e74206c697175696469747960501b6044820152606401610277565b610cfe565b7f00000000000000000000000000000000000000000000000000000000000000006001600160a01b0316846001600160a01b0316036103b857600054821115610c755760405162461bcd60e51b8152602060048201526016602482015275496e73756666696369656e74206c697175696469747960501b6044820152606401610277565b5092915050565b60007f00000000000000000000000000000000000000000000000000000000000000006001600160a01b0316836001600160a01b03161480610d7857507f00000000000000000000000000000000000000000000000000000000000000006001600160a01b0316836001600160a01b0316145b610db85760405162461bcd60e51b81526020600482015260116024820152702a37b5b2b7103737ba1034b7103830b4b960791b6044820152606401610277565b60008211610e085760405162461bcd60e51b815260206004820152601d60248201527f416d6f756e74206d7573742062652067726561746572207468616e20300000006044820152606401610277565b60007f00000000000000000000000000000000000000000000000000000000000000006001600160a01b0316846001600160a01b031603610f73576040516323b872dd60e01b81526001600160a01b037f000000000000000000000000000000000000000000000000000000000000000016906323b872dd90610e939033903090889060040161186d565b6020604051808303816000875af1158015610eb2573d6000803e3d6000fd5b505050506040513d601f19601f82011682018060405250810190610ed6919061184b565b506000546040516370a0823160e01b81523060048201527f00000000000000000000000000000000000000000000000000000000000000006001600160a01b0316906370a0823190602401602060405180830381865afa158015610f3e573d6000803e3d6000fd5b505050506040513d601f19601f82011682018060405250810190610f62919061181f565b610f6c9190611838565b905061109f565b6040516323b872dd60e01b81526001600160a01b037f000000000000000000000000000000000000000000000000000000000000000016906323b872dd90610fc39033903090889060040161186d565b6020604051808303816000875af1158015610fe2573d6000803e3d6000fd5b505050506040513d601f19601f82011682018060405250810190611006919061184b565b506001546040516370a0823160e01b81523060048201527f00000000000000000000000000000000000000000000000000000000000000006001600160a01b0316906370a0823190602401602060405180830381865afa15801561106e573d6000803e3d6000fd5b505050506040513d601f19601f82011682018060405250810190611092919061181f565b61109c9190611838565b90505b6103e86110ae826103e56117e6565b6110b891906117fd565b91507f00000000000000000000000000000000000000000000000000000000000000006001600160a01b0316846001600160a01b0316036112735760405163a9059cbb60e01b8152336004820152602481018390527f00000000000000000000000000000000000000000000000000000000000000006001600160a01b03169063a9059cbb906044016020604051808303816000875af1158015611160573d6000803e3d6000fd5b505050506040513d601f19601f82011682018060405250810190611184919061184b565b506001600160a01b037f00000000000000000000000000000000000000000000000000000000000000001663a9059cbb7f00000000000000000000000000000000000000000000000000000000000000006111df8587611838565b6040516001600160e01b031960e085901b1681526001600160a01b03909216600483015260248201526044016020604051808303816000875af115801561122a573d6000803e3d6000fd5b505050506040513d601f19601f8201168201806040525081019061124e919061184b565b5061126e816000546112609190611891565b836001546106199190611838565b6113ee565b60405163a9059cbb60e01b8152336004820152602481018390527f00000000000000000000000000000000000000000000000000000000000000006001600160a01b03169063a9059cbb906044016020604051808303816000875af11580156112e0573d6000803e3d6000fd5b505050506040513d601f19601f82011682018060405250810190611304919061184b565b506001600160a01b037f00000000000000000000000000000000000000000000000000000000000000001663a9059cbb7f000000000000000000000000000000000000000000000000000000000000000061135f8587611838565b6040516001600160e01b031960e085901b1681526001600160a01b03909216600483015260248201526044016020604051808303816000875af11580156113aa573d6000803e3d6000fd5b505050506040513d601f19601f820116820180604052508101906113ce919061184b565b506113ee826000546113e09190611838565b826001546106199190611891565b7f00000000000000000000000000000000000000000000000000000000000000006001600160a01b0316846001600160a01b03161461144d577f000000000000000000000000000000000000000000000000000000000000000061146f565b7f00000000000000000000000000000000000000000000000000000000000000005b6001600160a01b0316846001600160a01b03167fa078c4190abe07940190effc1846be0ccf03ad6007bc9e93f9697d0b460befbb83856040516114bc929190918252602082015260400190565b60405180910390a35092915050565b6040516370a0823160e01b8152306004820152600090819081906001600160a01b037f000000000000000000000000000000000000000000000000000000000000000016906370a0823190602401602060405180830381865afa158015611536573d6000803e3d6000fd5b505050506040513d601f19601f8201168201806040525081019061155a919061181f565b6040516370a0823160e01b81523060048201529091506000906001600160a01b037f000000000000000000000000000000000000000000000000000000000000000016906370a0823190602401602060405180830381865afa1580156115c4573d6000803e3d6000fd5b505050506040513d601f19601f820116820180604052508101906115e8919061181f565b6002549091506115f883876117e6565b61160291906117fd565b60025490945061161282876117e6565b61161c91906117fd565b92505050915091565b6001600160a01b0382166000908152600360205260408120805483929061164d908490611838565b9250508190555080600260008282546116669190611838565b90915550505050565b600060038211156116d057508060006116896002836117fd565b611694906001611891565b90505b818110156116ca579050806002816116af81866117fd565b6116b99190611891565b6116c391906117fd565b9050611697565b50919050565b81156116da575060015b919050565b6000818311156116ef57816116f1565b825b9392505050565b6001600160a01b03821660009081526003602052604081208054839290611720908490611891565b9250508190555080600260008282546116669190611891565b80356001600160a01b03811681146116da57600080fd5b6000806040838503121561176357600080fd5b61176c83611739565b946020939093013593505050565b60006020828403121561178c57600080fd5b6116f182611739565b6000602082840312156117a757600080fd5b5035919050565b600080604083850312156117c157600080fd5b50508035926020909101359150565b634e487b7160e01b600052601160045260246000fd5b80820281158282048414176103f4576103f46117d0565b60008261181a57634e487b7160e01b600052601260045260246000fd5b500490565b60006020828403121561183157600080fd5b5051919050565b818103818111156103f4576103f46117d0565b60006020828403121561185d57600080fd5b815180151581146116f157600080fd5b6001600160a01b039384168152919092166020820152604081019190915260600190565b808201808211156103f4576103f46117d056fea26469706673582212204901e9613b525483324b9f57329c1a9729cf8a2ee15a3f944e843de34d65ad7f64736f6c63430008180033",
  "linkReferences": {},
  "deployedLinkReferences": {}
}