{
  "_format": "hh-sol-artifact-1",
  "contractName": "Escrow",
  "sourceName": "contracts/realEstate/Escrow.sol",
  "abi": [
    {
      "inputs": [
        {
          "internalType": "address",
          "name": "_nft_address",
          "type": "address"
        },
        {
          "internalType": "uint256",
          "name": "_nft_id",
          "type": "uint256"
        },
        {
          "internalType": "uint8",
          "name": "_nft_count",
          "type": "uint8"
        },
        {
          "internalType": "uint256",
          "name": "_purchase_price",
          "type": "uint256"
        },
        {
          "internalType": "uint256",
          "name": "_earnest_amount",
          "type": "uint256"
        },
        {
          "internalType": "address payable",
          "name": "_seller",
          "type": "address"
        },
        {
          "internalType": "address payable",
          "name": "_buyer",
          "type": "address"
        },
        {
          "internalType": "address",
          "name": "_inspector",
          "type": "address"
        },
        {
          "internalType": "address",
          "name": "_lender",
          "type": "address"
        },
        {
          "internalType": "address",
          "name": "_appraiser",
          "type": "address"
        }
      ],
      "stateMutability": "nonpayable",
      "type": "constructor"
    },
    {
      "anonymous": false,
      "inputs": [
        {
          "indexed": true,
          "internalType": "address",
          "name": "_from",
          "type": "address"
        }
      ],
      "name": "ActivatedSale",
      "type": "event"
    },
    {
      "anonymous": false,
      "inputs": [
        {
          "indexed": true,
          "internalType": "address",
          "name": "_from",
          "type": "address"
        }
      ],
      "name": "Approval",
      "type": "event"
    },
    {
      "anonymous": false,
      "inputs": [
        {
          "indexed": true,
          "internalType": "address",
          "name": "_from",
          "type": "address"
        }
      ],
      "name": "Cancelled",
      "type": "event"
    },
    {
      "anonymous": false,
      "inputs": [
        {
          "indexed": true,
          "internalType": "address",
          "name": "_from",
          "type": "address"
        },
        {
          "indexed": true,
          "internalType": "address",
          "name": "_new_nft_owner",
          "type": "address"
        }
      ],
      "name": "Completed",
      "type": "event"
    },
    {
      "anonymous": false,
      "inputs": [
        {
          "indexed": true,
          "internalType": "address",
          "name": "_from",
          "type": "address"
        },
        {
          "indexed": false,
          "internalType": "uint256",
          "name": "_value",
          "type": "uint256"
        }
      ],
      "name": "Deposit",
      "type": "event"
    },
    {
      "anonymous": false,
      "inputs": [
        {
          "indexed": true,
          "internalType": "address",
          "name": "finance_contract",
          "type": "address"
        }
      ],
      "name": "SetFinanceContract",
      "type": "event"
    },
    {
      "stateMutability": "nonpayable",
      "type": "fallback"
    },
    {
      "inputs": [],
      "name": "activateSale",
      "outputs": [],
      "stateMutability": "nonpayable",
      "type": "function"
    },
    {
      "inputs": [],
      "name": "appraiser",
      "outputs": [
        {
          "internalType": "address",
          "name": "",
          "type": "address"
        }
      ],
      "stateMutability": "view",
      "type": "function"
    },
    {
      "inputs": [
        {
          "internalType": "address",
          "name": "",
          "type": "address"
        }
      ],
      "name": "approval",
      "outputs": [
        {
          "internalType": "bool",
          "name": "",
          "type": "bool"
        }
      ],
      "stateMutability": "view",
      "type": "function"
    },
    {
      "inputs": [],
      "name": "approveSale",
      "outputs": [],
      "stateMutability": "nonpayable",
      "type": "function"
    },
    {
      "inputs": [],
      "name": "buyer",
      "outputs": [
        {
          "internalType": "address payable",
          "name": "",
          "type": "address"
        }
      ],
      "stateMutability": "view",
      "type": "function"
    },
    {
      "inputs": [],
      "name": "cancelSale",
      "outputs": [],
      "stateMutability": "nonpayable",
      "type": "function"
    },
    {
      "inputs": [],
      "name": "deposit",
      "outputs": [],
      "stateMutability": "payable",
      "type": "function"
    },
    {
      "inputs": [],
      "name": "depositEarnest",
      "outputs": [],
      "stateMutability": "payable",
      "type": "function"
    },
    {
      "inputs": [
        {
          "internalType": "address",
          "name": "",
          "type": "address"
        }
      ],
      "name": "deposit_balance",
      "outputs": [
        {
          "internalType": "uint256",
          "name": "",
          "type": "uint256"
        }
      ],
      "stateMutability": "view",
      "type": "function"
    },
    {
      "inputs": [],
      "name": "earnest_amount",
      "outputs": [
        {
          "internalType": "uint256",
          "name": "",
          "type": "uint256"
        }
      ],
      "stateMutability": "view",
      "type": "function"
    },
    {
      "inputs": [],
      "name": "factory",
      "outputs": [
        {
          "internalType": "address",
          "name": "",
          "type": "address"
        }
      ],
      "stateMutability": "view",
      "type": "function"
    },
    {
      "inputs": [],
      "name": "fee",
      "outputs": [
        {
          "internalType": "uint8",
          "name": "",
          "type": "uint8"
        }
      ],
      "stateMutability": "view",
      "type": "function"
    },
    {
      "inputs": [],
      "name": "finalizeSale",
      "outputs": [],
      "stateMutability": "nonpayable",
      "type": "function"
    },
    {
      "inputs": [],
      "name": "finance_contract",
      "outputs": [
        {
          "internalType": "address",
          "name": "",
          "type": "address"
        }
      ],
      "stateMutability": "view",
      "type": "function"
    },
    {
      "inputs": [],
      "name": "inspector",
      "outputs": [
        {
          "internalType": "address",
          "name": "",
          "type": "address"
        }
      ],
      "stateMutability": "view",
      "type": "function"
    },
    {
      "inputs": [],
      "name": "lender",
      "outputs": [
        {
          "internalType": "address",
          "name": "",
          "type": "address"
        }
      ],
      "stateMutability": "view",
      "type": "function"
    },
    {
      "inputs": [],
      "name": "nft_address",
      "outputs": [
        {
          "internalType": "address",
          "name": "",
          "type": "address"
        }
      ],
      "stateMutability": "view",
      "type": "function"
    },
    {
      "inputs": [],
      "name": "nft_count",
      "outputs": [
        {
          "internalType": "uint8",
          "name": "",
          "type": "uint8"
        }
      ],
      "stateMutability": "view",
      "type": "function"
    },
    {
      "inputs": [],
      "name": "nft_id",
      "outputs": [
        {
          "internalType": "uint256",
          "name": "",
          "type": "uint256"
        }
      ],
      "stateMutability": "view",
      "type": "function"
    },
    {
      "inputs": [
        {
          "internalType": "address",
          "name": "operator",
          "type": "address"
        },
        {
          "internalType": "address",
          "name": "from",
          "type": "address"
        },
        {
          "internalType": "uint256[]",
          "name": "ids",
          "type": "uint256[]"
        },
        {
          "internalType": "uint256[]",
          "name": "values",
          "type": "uint256[]"
        },
        {
          "internalType": "bytes",
          "name": "data",
          "type": "bytes"
        }
      ],
      "name": "onERC1155BatchReceived",
      "outputs": [
        {
          "internalType": "bytes4",
          "name": "",
          "type": "bytes4"
        }
      ],
      "stateMutability": "nonpayable",
      "type": "function"
    },
    {
      "inputs": [
        {
          "internalType": "address",
          "name": "operator",
          "type": "address"
        },
        {
          "internalType": "address",
          "name": "from",
          "type": "address"
        },
        {
          "internalType": "uint256",
          "name": "id",
          "type": "uint256"
        },
        {
          "internalType": "uint256",
          "name": "value",
          "type": "uint256"
        },
        {
          "internalType": "bytes",
          "name": "data",
          "type": "bytes"
        }
      ],
      "name": "onERC1155Received",
      "outputs": [
        {
          "internalType": "bytes4",
          "name": "",
          "type": "bytes4"
        }
      ],
      "stateMutability": "nonpayable",
      "type": "function"
    },
    {
      "inputs": [],
      "name": "purchase_price",
      "outputs": [
        {
          "internalType": "uint256",
          "name": "",
          "type": "uint256"
        }
      ],
      "stateMutability": "view",
      "type": "function"
    },
    {
      "inputs": [],
      "name": "seller",
      "outputs": [
        {
          "internalType": "address payable",
          "name": "",
          "type": "address"
        }
      ],
      "stateMutability": "view",
      "type": "function"
    },
    {
      "inputs": [
        {
          "internalType": "address",
          "name": "_finance_contract",
          "type": "address"
        }
      ],
      "name": "setFinanceContract",
      "outputs": [],
      "stateMutability": "nonpayable",
      "type": "function"
    },
    {
      "inputs": [],
      "name": "state",
      "outputs": [
        {
          "internalType": "enum State",
          "name": "",
          "type": "uint8"
        }
      ],
      "stateMutability": "view",
      "type": "function"
    },
    {
      "inputs": [
        {
          "internalType": "bytes4",
          "name": "interfaceId",
          "type": "bytes4"
        }
      ],
      "name": "supportsInterface",
      "outputs": [
        {
          "internalType": "bool",
          "name": "",
          "type": "bool"
        }
      ],
      "stateMutability": "pure",
      "type": "function"
    },
    {
      "stateMutability": "payable",
      "type": "receive"
    }
  ],
  "bytecode": "0x6101206040526000805461ff0019166101001790553480156200002157600080fd5b5060405162001bd238038062001bd2833981016040819052620000449162000113565b33610100526001600160a01b038a811660805260a08a90526000805462ff000019166201000060ff8c1602178155600189905560c088905286821660e052600280546001600160a01b03199081168885161790915560048054821687851617905560058054821686851617905560038054909116928416929092179091556006805460ff60a01b1916600160a01b83021790555050505050505050505050620001de565b6001600160a01b0381168114620000fe57600080fd5b50565b80516200010e81620000e8565b919050565b6000806000806000806000806000806101408b8d0312156200013457600080fd5b8a516200014181620000e8565b60208c015160408d0151919b50995060ff811681146200016057600080fd5b8098505060608b0151965060808b0151955060a08b01516200018281620000e8565b60c08c01519095506200019581620000e8565b60e08c0151909450620001a881620000e8565b6101008c0151909350620001bc81620000e8565b9150620001cd6101208c0162000101565b90509295989b9194979a5092959850565b60805160a05160c05160e051610100516119386200029a600039600081816105150152610a4e015260008181610284015281816106340152818161080a01528181610aa501528181610f06015281816111720152818161131c01526114da01526000818161037c015281816108ec01528181610de101526114a801526000818161031401528181610baa01528181610c65015261133e01526000818161055e01528181610b6d01528181610c2801526112e501526119386000f3fe6080604052600436106101855760003560e01c8063a8468e0e116100d1578063c78de7091161008a578063e7e1049011610064578063e7e10490146105a7578063ed2cee9e146105bc578063f23a6e61146105dc578063f5a0f32014610609576101d7565b8063c78de7091461054c578063d0e30db014610580578063ddca3f4314610588576101d7565b8063a8468e0e14610440578063bc197c811461046d578063bcead63e146104b5578063c19d93fb146104d5578063c45a015514610503578063c721f08d14610537576101d7565b806358a687ec1161013e5780636646a90d116101185780636646a90d1461039e5780637150d8ae146103be57806373b0745f146103de5780639430b49614610410576101d7565b806358a687ec1461034d5780635af41d6114610362578063651736661461036a576101d7565b806301ffc9a71461022c57806308551a5314610272578063085735ae146102be57806316ae94b1146102e2578063305bbc631461030257806349cdc87c14610336576101d7565b366101d75760405162461bcd60e51b815260206004820152601b60248201527f446972656374206465706f73697473206e6f7420616c6c6f776564000000000060448201526064015b60405180910390fd5b3480156101e357600080fd5b5060405162461bcd60e51b815260206004820152601c60248201527f46616c6c6261636b2066756e6374696f6e3a20526576657274696e670000000060448201526064016101ce565b34801561023857600080fd5b5061025d610247366004611597565b6001600160e01b031916630271189760e51b1490565b60405190151581526020015b60405180910390f35b34801561027e57600080fd5b506102a67f000000000000000000000000000000000000000000000000000000000000000081565b6040516001600160a01b039091168152602001610269565b3480156102ca57600080fd5b506102d460015481565b604051908152602001610269565b3480156102ee57600080fd5b506003546102a6906001600160a01b031681565b34801561030e57600080fd5b506102d47f000000000000000000000000000000000000000000000000000000000000000081565b34801561034257600080fd5b5061034b610629565b005b34801561035957600080fd5b5061034b6107ac565b61034b610d47565b34801561037657600080fd5b506102d47f000000000000000000000000000000000000000000000000000000000000000081565b3480156103aa57600080fd5b506006546102a6906001600160a01b031681565b3480156103ca57600080fd5b506002546102a6906001600160a01b031681565b3480156103ea57600080fd5b506000546103fe9062010000900460ff1681565b60405160ff9091168152602001610269565b34801561041c57600080fd5b5061025d61042b3660046115e4565b60086020526000908152604090205460ff1681565b34801561044c57600080fd5b506102d461045b3660046115e4565b60076020526000908152604090205481565b34801561047957600080fd5b5061049c61048836600461168d565b63bc197c8160e01b98975050505050505050565b6040516001600160e01b03199091168152602001610269565b3480156104c157600080fd5b506005546102a6906001600160a01b031681565b3480156104e157600080fd5b506006546104f690600160a01b900460ff1681565b604051610269919061175e565b34801561050f57600080fd5b506102a67f000000000000000000000000000000000000000000000000000000000000000081565b34801561054357600080fd5b5061034b610efb565b34801561055857600080fd5b506102a67f000000000000000000000000000000000000000000000000000000000000000081565b61034b61106a565b34801561059457600080fd5b506000546103fe90610100900460ff1681565b3480156105b357600080fd5b5061034b611114565b3480156105c857600080fd5b506004546102a6906001600160a01b031681565b3480156105e857600080fd5b5061049c6105f7366004611786565b63f23a6e6160e01b9695505050505050565b34801561061557600080fd5b5061034b6106243660046115e4565b6113db565b336001600160a01b037f000000000000000000000000000000000000000000000000000000000000000016148061066a57506002546001600160a01b031633145b8061067f57506003546001600160a01b031633145b8061069457506004546001600160a01b031633145b806106a957506005546001600160a01b031633145b6106c55760405162461bcd60e51b81526004016101ce906117fe565b600080600654600160a01b900460ff1660038111156106e6576106e6611748565b146107035760405162461bcd60e51b81526004016101ce90611824565b6002546001600160a01b031633036107695760405162461bcd60e51b8152602060048201526024808201527f757365206465706f7369744561726e657374282920746f20617070726f76652060448201526373616c6560e01b60648201526084016101ce565b33600081815260086020526040808220805460ff19166001179055517f19996ea5aede4d14af17b07567999b4c9d512663cfdaa4b01313d0c4af7a6ce79190a250565b60005460ff16156107f25760405162461bcd60e51b815260206004820152601060248201526f1499595b9d1c985b98de4819dd585c9960821b60448201526064016101ce565b6000805460ff19166001179055336001600160a01b037f000000000000000000000000000000000000000000000000000000000000000016148061084057506002546001600160a01b031633145b8061085557506003546001600160a01b031633145b8061086a57506004546001600160a01b031633145b8061087f57506005546001600160a01b031633145b61089b5760405162461bcd60e51b81526004016101ce906117fe565b600180600654600160a01b900460ff1660038111156108bc576108bc611748565b146108d95760405162461bcd60e51b81526004016101ce90611824565b6005546001600160a01b031615610986577f00000000000000000000000000000000000000000000000000000000000000006001546109189190611863565b6005546001600160a01b031660009081526007602052604090205410156109815760405162461bcd60e51b815260206004820152601b60248201527f4c656e646572206465706f73697420696e73756666696369656e74000000000060448201526064016101ce565b6109f2565b6001546002546001600160a01b031660009081526007602052604090205410156109f25760405162461bcd60e51b815260206004820152601a60248201527f4275796572206465706f73697420696e73756666696369656e7400000000000060448201526064016101ce565b60008054600154606491610a0f9161010090910460ff169061187c565b610a199190611893565b9050600081600154610a2b9190611863565b6006805460ff60a01b1916600160a11b1790556040519091506001600160a01b037f0000000000000000000000000000000000000000000000000000000000000000169083156108fc029084906000818181858888f19350505050158015610a97573d6000803e3d6000fd5b506040516001600160a01b037f0000000000000000000000000000000000000000000000000000000000000000169082156108fc029083906000818181858888f19350505050158015610aee573d6000803e3d6000fd5b506005546001600160a01b031615610c13576006546001600160a01b0316610b585760405162461bcd60e51b815260206004820152601860248201527f46696e616e636520636f6e7472616374206e6f7420736574000000000000000060448201526064016101ce565b600654600054604051637921219560e11b81527f00000000000000000000000000000000000000000000000000000000000000006001600160a01b039081169363f242432a93610bdc933093909216917f00000000000000000000000000000000000000000000000000000000000000009162010000900460ff16906004016118b5565b600060405180830381600087803b158015610bf657600080fd5b505af1158015610c0a573d6000803e3d6000fd5b50505050610cca565b600254600054604051637921219560e11b81527f00000000000000000000000000000000000000000000000000000000000000006001600160a01b039081169363f242432a93610c97933093909216917f00000000000000000000000000000000000000000000000000000000000000009162010000900460ff16906004016118b5565b600060405180830381600087803b158015610cb157600080fd5b505af1158015610cc5573d6000803e3d6000fd5b505050505b6005546001600160a01b031615610cec576006546001600160a01b0316610cf9565b6002546001600160a01b03165b6001600160a01b0316336001600160a01b03167f94cd726a50601e116ef0b212c52cb0b6678551bca15c43e890b551e1fe9de16560405160405180910390a350506000805460ff1916905550565b600080600654600160a01b900460ff166003811115610d6857610d68611748565b14610d855760405162461bcd60e51b81526004016101ce90611824565b6002546001600160a01b03163314610ddf5760405162461bcd60e51b815260206004820152601e60248201527f4f6e6c792062757965722063616e206465706f736974206561726e657374000060448201526064016101ce565b7f00000000000000000000000000000000000000000000000000000000000000003414610e4e5760405162461bcd60e51b815260206004820152601860248201527f496e636f7272656374206561726e65737420616d6f756e74000000000000000060448201526064016101ce565b3360009081526007602052604090205415610e9f5760405162461bcd60e51b8152602060048201526011602482015270105b1c9958591e4819195c1bdcda5d1959607a1b60448201526064016101ce565b3360009081526007602052604081208054349290610ebe9084906118ef565b909155505060405134815233907fe1fffcc4923d04b559f4d29a8bfc6cda04eb5b0d3c460751c2402c5c5cc9109c9060200160405180910390a250565b336001600160a01b037f0000000000000000000000000000000000000000000000000000000000000000161480610f3c57506002546001600160a01b031633145b80610f5157506003546001600160a01b031633145b80610f6657506004546001600160a01b031633145b80610f7b57506005546001600160a01b031633145b610f975760405162461bcd60e51b81526004016101ce906117fe565b600080600654600160a01b900460ff166003811115610fb857610fb8611748565b14610fd55760405162461bcd60e51b81526004016101ce90611824565b610fdd61148b565b6110295760405162461bcd60e51b815260206004820152601860248201527f4e6f7420616c6c207061727469657320617070726f766564000000000000000060448201526064016101ce565b6006805460ff60a01b1916600160a01b17905560405133907f3775cf81da9969d12dec0586a28025a33c7f961cce7c8280ff0b390d5d87f25290600090a250565b600180600654600160a01b900460ff16600381111561108b5761108b611748565b146110a85760405162461bcd60e51b81526004016101ce90611824565b6002546001600160a01b03163314610e9f576005546001600160a01b03163314610e9f5760405162461bcd60e51b815260206004820181905260248201527f4f6e6c79206c656e646572206f722062757965722063616e206465706f73697460448201526064016101ce565b60005460ff161561115a5760405162461bcd60e51b815260206004820152601060248201526f1499595b9d1c985b98de4819dd585c9960821b60448201526064016101ce565b6000805460ff19166001179055336001600160a01b037f00000000000000000000000000000000000000000000000000000000000000001614806111a857506002546001600160a01b031633145b806111bd57506003546001600160a01b031633145b806111d257506004546001600160a01b031633145b806111e757506005546001600160a01b031633145b6112035760405162461bcd60e51b81526004016101ce906117fe565b600080600654600160a01b900460ff16600381111561122457611224611748565b146112415760405162461bcd60e51b81526004016101ce90611824565b6006805460ff60a01b1916600360a01b1790556002546001600160a01b0316600090815260076020526040902054156112d3576002546001600160a01b031660008181526007602052604080822054905181156108fc0292818181858888f193505050501580156112b6573d6000803e3d6000fd5b506002546001600160a01b03166000908152600760205260408120555b600054604051637921219560e11b81527f00000000000000000000000000000000000000000000000000000000000000006001600160a01b03169163f242432a916113719130917f0000000000000000000000000000000000000000000000000000000000000000917f0000000000000000000000000000000000000000000000000000000000000000916201000090910460ff16906004016118b5565b600060405180830381600087803b15801561138b57600080fd5b505af115801561139f573d6000803e3d6000fd5b50506040513392507f398bd6b21ae4164ec322fb0eb8c2eb6277f36fd41903fbbed594dfe1255912819150600090a2506000805460ff19169055565b6005546001600160a01b031633146114415760405162461bcd60e51b8152602060048201526024808201527f4f6e6c79206c656e6465722063616e207365742066696e616e636520636f6e746044820152631c9858dd60e21b60648201526084016101ce565b600680546001600160a01b0319166001600160a01b0383169081179091556040517fce88340c9a0d84eff76a2c447b403af34ab0029276951fba27e0a33eb779985290600090a250565b6002546001600160a01b03166000908152600760205260408120547f00000000000000000000000000000000000000000000000000000000000000001180159061150d57506001600160a01b037f00000000000000000000000000000000000000000000000000000000000000001660009081526008602052604090205460ff165b801561153357506004546001600160a01b031660009081526008602052604090205460ff165b801561155957506003546001600160a01b031660009081526008602052604090205460ff165b801561159257506005546001600160a01b0316158061159257506005546001600160a01b031660009081526008602052604090205460ff165b905090565b6000602082840312156115a957600080fd5b81356001600160e01b0319811681146115c157600080fd5b9392505050565b80356001600160a01b03811681146115df57600080fd5b919050565b6000602082840312156115f657600080fd5b6115c1826115c8565b60008083601f84011261161157600080fd5b50813567ffffffffffffffff81111561162957600080fd5b6020830191508360208260051b850101111561164457600080fd5b9250929050565b60008083601f84011261165d57600080fd5b50813567ffffffffffffffff81111561167557600080fd5b60208301915083602082850101111561164457600080fd5b60008060008060008060008060a0898b0312156116a957600080fd5b6116b2896115c8565b97506116c060208a016115c8565b9650604089013567ffffffffffffffff808211156116dd57600080fd5b6116e98c838d016115ff565b909850965060608b013591508082111561170257600080fd5b61170e8c838d016115ff565b909650945060808b013591508082111561172757600080fd5b506117348b828c0161164b565b999c989b5096995094979396929594505050565b634e487b7160e01b600052602160045260246000fd5b602081016004831061178057634e487b7160e01b600052602160045260246000fd5b91905290565b60008060008060008060a0878903121561179f57600080fd5b6117a8876115c8565b95506117b6602088016115c8565b94506040870135935060608701359250608087013567ffffffffffffffff8111156117e057600080fd5b6117ec89828a0161164b565b979a9699509497509295939492505050565b6020808252600c908201526b155b985d5d1a1bdc9a5e995960a21b604082015260600190565b6020808252600f908201526e496e636f727265637420737461746560881b604082015260600190565b634e487b7160e01b600052601160045260246000fd5b818103818111156118765761187661184d565b92915050565b80820281158282048414176118765761187661184d565b6000826118b057634e487b7160e01b600052601260045260246000fd5b500490565b6001600160a01b039485168152929093166020830152604082015260ff909116606082015260a06080820181905260009082015260c00190565b808201808211156118765761187661184d56fea2646970667358221220240fef67e6f293241438e56c94c93622307e3a794268cd0a3babe31ea32f085564736f6c63430008180033",
  "linkReferences": {},
  "deployedLinkReferences": {}
}