{
  "_format": "hh-sol-artifact-1",
  "contractName": "Finance",
  "sourceName": "contracts/realEstate/Finance.sol",
  "abi": [
    {
      "inputs": [
        {
          "internalType": "address",
          "name": "_nftAddress",
          "type": "address"
        }
      ],
      "stateMutability": "nonpayable",
      "type": "constructor"
    },
    {
      "inputs": [
        {
          "internalType": "address",
          "name": "",
          "type": "address"
        }
      ],
      "name": "idInFinance",
      "outputs": [
        {
          "internalType": "uint256",
          "name": "",
          "type": "uint256"
        }
      ],
      "stateMutability": "view",
      "type": "function"
    },
    {
      "inputs": [],
      "name": "nftAddress",
      "outputs": [
        {
          "internalType": "address",
          "name": "",
          "type": "address"
        }
      ],
      "stateMutability": "view",
      "type": "function"
    },
    {
      "inputs": [
        {
          "internalType": "address",
          "name": "operator",
          "type": "address"
        },
        {
          "internalType": "address",
          "name": "from",
          "type": "address"
        },
        {
          "internalType": "uint256[]",
          "name": "ids",
          "type": "uint256[]"
        },
        {
          "internalType": "uint256[]",
          "name": "values",
          "type": "uint256[]"
        },
        {
          "internalType": "bytes",
          "name": "data",
          "type": "bytes"
        }
      ],
      "name": "onERC1155BatchReceived",
      "outputs": [
        {
          "internalType": "bytes4",
          "name": "",
          "type": "bytes4"
        }
      ],
      "stateMutability": "nonpayable",
      "type": "function"
    },
    {
      "inputs": [
        {
          "internalType": "address",
          "name": "operator",
          "type": "address"
        },
        {
          "internalType": "address",
          "name": "from",
          "type": "address"
        },
        {
          "internalType": "uint256",
          "name": "id",
          "type": "uint256"
        },
        {
          "internalType": "uint256",
          "name": "value",
          "type": "uint256"
        },
        {
          "internalType": "bytes",
          "name": "data",
          "type": "bytes"
        }
      ],
      "name": "onERC1155Received",
      "outputs": [
        {
          "internalType": "bytes4",
          "name": "",
          "type": "bytes4"
        }
      ],
      "stateMutability": "nonpayable",
      "type": "function"
    },
    {
      "inputs": [],
      "name": "owner",
      "outputs": [
        {
          "internalType": "address",
          "name": "",
          "type": "address"
        }
      ],
      "stateMutability": "view",
      "type": "function"
    },
    {
      "inputs": [
        {
          "internalType": "address",
          "name": "actor",
          "type": "address"
        },
        {
          "internalType": "uint256",
          "name": "id",
          "type": "uint256"
        }
      ],
      "name": "payOff",
      "outputs": [],
      "stateMutability": "nonpayable",
      "type": "function"
    },
    {
      "inputs": [
        {
          "internalType": "address",
          "name": "actor",
          "type": "address"
        },
        {
          "internalType": "uint256",
          "name": "id",
          "type": "uint256"
        }
      ],
      "name": "setIdInFinance",
      "outputs": [],
      "stateMutability": "nonpayable",
      "type": "function"
    },
    {
      "inputs": [
        {
          "internalType": "bytes4",
          "name": "interfaceId",
          "type": "bytes4"
        }
      ],
      "name": "supportsInterface",
      "outputs": [
        {
          "internalType": "bool",
          "name": "",
          "type": "bool"
        }
      ],
      "stateMutability": "pure",
      "type": "function"
    }
  ],
  "bytecode": "0x608060405234801561001057600080fd5b506040516106f73803806106f783398101604081905261002f91610062565b60008054336001600160a01b031991821617909155600180549091166001600160a01b0392909216919091179055610092565b60006020828403121561007457600080fd5b81516001600160a01b038116811461008b57600080fd5b9392505050565b610656806100a16000396000f3fe608060405234801561001057600080fd5b50600436106100885760003560e01c8063bc197c811161005b578063bc197c8114610119578063ce2913dc14610154578063f23a6e6114610182578063f29c27d3146101a257600080fd5b806301ffc9a71461008d5780632a6a897b146100c65780635bf8633a146100db5780638da5cb5b14610106575b600080fd5b6100b161009b3660046103cd565b6001600160e01b031916630271189760e51b1490565b60405190151581526020015b60405180910390f35b6100d96100d436600461041a565b6101b5565b005b6001546100ee906001600160a01b031681565b6040516001600160a01b0390911681526020016100bd565b6000546100ee906001600160a01b031681565b61013b6101273660046104d2565b63bc197c8160e01b98975050505050505050565b6040516001600160e01b031990911681526020016100bd565b61017461016236600461058d565b60026020526000908152604090205481565b6040519081526020016100bd565b61013b6101903660046105a8565b63f23a6e6160e01b9695505050505050565b6100d96101b036600461041a565b610346565b6000546001600160a01b0316331461023357336001600160a01b038316146102335760405162461bcd60e51b815260206004820152602660248201527f4f6e6c7920746865206163746f722063616e20706179206f6666207468652066604482015265696e616e636560d01b60648201526084015b60405180910390fd5b6001600160a01b03821660009081526002602052604090205481146102ad5760405162461bcd60e51b815260206004820152602a60248201527f4163746f7220646f6573206e6f74206861766520612066696e616e63652077696044820152691d1a081d1a1a5cc81a5960b21b606482015260840161022a565b6001600160a01b03828116600081815260026020526040808220829055600180549151637921219560e11b8152306004820152602481019490945260448401869052606484015260a0608484015260a48301919091529091169063f242432a9060c401600060405180830381600087803b15801561032a57600080fd5b505af115801561033e573d6000803e3d6000fd5b505050505050565b6000546001600160a01b031633146103b15760405162461bcd60e51b815260206004820152602860248201527f4f6e6c7920746865206f776e65722063616e207365742074686520696420696e6044820152672066696e616e636560c01b606482015260840161022a565b6001600160a01b03909116600090815260026020526040902055565b6000602082840312156103df57600080fd5b81356001600160e01b0319811681146103f757600080fd5b9392505050565b80356001600160a01b038116811461041557600080fd5b919050565b6000806040838503121561042d57600080fd5b610436836103fe565b946020939093013593505050565b60008083601f84011261045657600080fd5b50813567ffffffffffffffff81111561046e57600080fd5b6020830191508360208260051b850101111561048957600080fd5b9250929050565b60008083601f8401126104a257600080fd5b50813567ffffffffffffffff8111156104ba57600080fd5b60208301915083602082850101111561048957600080fd5b60008060008060008060008060a0898b0312156104ee57600080fd5b6104f7896103fe565b975061050560208a016103fe565b9650604089013567ffffffffffffffff8082111561052257600080fd5b61052e8c838d01610444565b909850965060608b013591508082111561054757600080fd5b6105538c838d01610444565b909650945060808b013591508082111561056c57600080fd5b506105798b828c01610490565b999c989b5096995094979396929594505050565b60006020828403121561059f57600080fd5b6103f7826103fe565b60008060008060008060a087890312156105c157600080fd5b6105ca876103fe565b95506105d8602088016103fe565b94506040870135935060608701359250608087013567ffffffffffffffff81111561060257600080fd5b61060e89828a01610490565b979a969950949750929593949250505056fea2646970667358221220339b171da377a32d5c5cc0c7206a538a2daae783f7b32ec3ce905cd3f021e5fd64736f6c63430008180033",
  "linkReferences": {},
  "deployedLinkReferences": {}
}